:100000000C945D000C9485000C9485000C94850084
:100010000C9485000C9485000C9485000C94810B45
:100020000C9485000C9485000C9485000C9485003C
:100030000C9485000C9485000C9485000C9485002C
:100040000C94DF0A0C9485000C944F0B0C94290B34
:100050000C9485000C9485000C9485000C9485000C
:100060000C94C0090C9485000000000800020100F7
:100070000003040700000000000000000000000072
:10008000250028002B0000000000240027002A0083
:10009000040404040404040402020202020203032E
:1000A0000303030301020408102040800102040836
:1000B0001020010204081020910C11241FBECFEF64
:1000C000D8E0DEBFCDBF11E0A0E0B1E0ECE7F7E2A1
:1000D00002C005900D92AC37B107D9F723E0ACE729
:1000E000B1E001C01D92A931B207E1F710E0CDE502
:1000F000D0E004C02197FE010E944610CC35D10704
:10010000C9F70E94530E0C94BC130C94000090E0AD
:10011000FC01EC55FF4F249180579F4FFC018491C7
:10012000882399F090E0880F991FFC01EA57FF4F50
:10013000A591B491FC01E458FF4F859194918FB73C
:10014000F894EC91E22BEC938FBF089508950895F5
:100150008091050390910603A0910703B0910803D5
:100160002091FE02213091F0223089F18091050327
:1001700090910603A0910703B0910803892B8A2B65
:100180008B2B19F481E08093FD020895AC01BD0131
:10019000009721E0A207B10520F04FEF5FEF60E08C
:1001A00070E05093890040938800841B950BA60B48
:1001B000B70B8093050390930603A0930703B093B6
:1001C000080380916F00826080936F00CFCFAC01F5
:1001D000BD018F3F9105A105B10529F020F04FEF3A
:1001E00050E060E070E04093B300841B950BA60BD9
:1001F000B70B8093050390930603A0930703B09376
:10020000080380917000826080937000AFCF0895E2
:1002100008952091A301260F3327331F2132310582
:10022000ECF420911602FC0190E080E0243069F0AB
:1002300082E00895A091A3012191AC014D575E4F3A
:10024000A40FB52FB11D2C930196861798F38091BA
:10025000A301680F6093A30180E0089581E00895F1
:100260000895E091CF018091CE01E81730F4F0E0DD
:10027000E053FE4F808190E008958FEF9FEF089547
:100280009091CF018091CE012FEF3FEF981748F466
:10029000E92FF0E0E053FE4F208130E09F5F909324
:1002A000CF01C90108958091CE019091CF01891BA2
:1002B000990B0895CF92DF92EF92FF920F931F93C5
:1002C000CF93DF937C01CB018A0120911C02222372
:1002D00089F0EB016B01C40ED51ECC15DD0569F06C
:1002E0006991D701ED91FC910190F081E02DC7015A
:1002F0000995F3CF642F0E940901C801DF91CF91C6
:100300001F910F91FF90EF90DF90CF900895CF93C2
:10031000DF931F92CDB7DEB7698320911C022223A1
:10032000F9F020913F02203258F021E030E0FC014A
:100330003383228390E080E00F90DF91CF91089586
:1003400080911D02E82FF0E0E25EFD4F99819083DD
:100350008F5F80931D0280933F0281E090E0ECCF9D
:1003600061E0CE0101960E940901F7CF90E0FC0107
:10037000E859FF4F2491FC01EC55FF4F3491FC01EB
:10038000E057FF4FE491EE23C9F0222339F02330E8
:1003900001F1A8F4213019F1223029F1F0E0EE0F3B
:1003A000FF1FE458FF4FA591B4918FB7F894EC91DB
:1003B000611126C030953E233C938FBF08952730AE
:1003C000A9F02830C9F0243049F7809180008F7D52
:1003D00003C0809180008F7780938000DFCF84B549
:1003E0008F7784BDDBCF84B58F7DFBCF8091B0004C
:1003F0008F778093B000D2CF8091B0008F7DF9CFFE
:100400003E2BDACF1092160281E0809315021092F3
:10041000F00161E082E10E94B60161E083E10E94A7
:10042000B601E9EBF0E080818E7F808380818D7F53
:10043000808388E48093B80085E48093BC000895AD
:100440001092CF011092CE0110921D0210923F0225
:100450000E94020286EA90E09093CD018093CC0145
:1004600087EA90E09093CB018093CA010895CF93DF
:10047000DF9391E0909382018823B9F0C091B80096
:10048000D091BA008091BC008A7B8093BC0060E070
:1004900082E10E94B60160E083E10E94B6010E9401
:1004A0000202D093BA00C093B800DF91CF910895B3
:1004B0001F93CF93DF93182FEB010E9487002097A3
:1004C00039F460E0812FDF91CF911F910C94B60138
:1004D000E12FF0E0E859FF4FE491E33039F148F4BF
:1004E000E130B9F0E230E9F0C038D10554F361E011
:1004F000E9CFE73029F1E83059F1E430A9F78091EC
:100500008000806280938000D0938B00C0938A002B
:1005100004C084B5806884BDC7BDDF91CF911F91B1
:10052000089584B5806284BDC8BDF7CF80918000F6
:10053000806880938000D0938900C0938800EDCFBD
:100540008091B00080688093B000C093B300E5CF85
:100550008091B00080628093B000C093B400DDCF82
:100560003FB7F89480917E0190917F01A091800126
:10057000B091810126B5A89B05C02F3F19F00196C7
:10058000A11DB11D3FBFBA2FA92F982F8827BC01ED
:10059000CD01620F711D811D911D42E0660F771F15
:1005A000881F991F4A95D1F708958F929F92AF9215
:1005B000BF92CF92DF92EF92FF920F931F93CF9350
:1005C000DF93D0913F02D13208F0D7C0182FC091ED
:1005D0003E020E94B0026B017C01809116028111E3
:1005E0006BC082E080931602109315028FEF809308
:1005F000140210921302D0931202AEE1B2E0E2EFC5
:10060000F1E080E0D81391C01092F1018091F101E6
:10061000CC0FC82BC093F1018091F001813009F01B
:1006200088C01092F0010E94B0026B017C018091A1
:10063000F1018093BB008091180290911902A09162
:100640001A02B0911B02892B8A2B8B2BA1F00E94DE
:10065000B002009118021091190220911A023091F3
:100660001B026C197D098E099F09061717072807B9
:10067000390708F442C08091BC0083FDD8CF85ECD7
:100680008093BC000E94B0026B017C018091160235
:10069000823009F450C0809114028F3F09F46FC07A
:1006A00080911402803209F46CC08091140280336E
:1006B00009F469C084E026C0809118029091190263
:1006C000A0911A02B0911B02892B8A2B8B2B09F463
:1006D00084CF0E94B0028090180290901902A090DE
:1006E0001A02B0901B026C197D098E099F098616AB
:1006F0009706A806B90608F070CF809117020E94ED
:10070000370285E010921D0210923F0210921C02E7
:10071000DF91CF911F910F91FF90EF90DF90CF90DD
:10072000BF90AF909F908F9008959D9191938F5F10
:1007300069CF85EEA5CF8091180290911902A09102
:100740001A02B0911B02892B8A2B8B2B09F49ECFA6
:100750000E94B002009118021091190220911A0211
:1007600030911B026C197D098E099F090617170726
:100770002807390708F08ACFC0CF81E0C3CF80E0D7
:10078000C1CF82E0BFCF83E0BDCF1F93CF93DF9374
:10079000EA01122FDC0111968D919C91DC01ED9103
:1007A000FC910280F381E02D0995C817D90729F43F
:1007B000812F0E94D50291E0811190E0892FDF9175
:1007C000CF911F910895CF93DF93EC018B81882304
:1007D000A1F0888191E090931C0280933E021092D8
:1007E0001D0210923F0281E00E94D50291E081112A
:1007F00090E0892FDF91CF9108950E94200281E03F
:100800008B83CE010E94E303982F8111E2CFF1CFB9
:100810008F929F92AF92BF92CF92DF92EF92FF9210
:100820004B015C010E94B0026B017C010E94B0028E
:100830006C197D098E099F09683E734081059105F9
:10084000A8F321E0821A9108A108B10888EEC80E29
:1008500083E0D81EE11CF11C81149104A104B104B1
:1008600029F7FF90EF90DF90CF90BF90AF909F90CF
:100870008F900895AF92BF92CF92DF92EF92FF9246
:100880000F931F93CF93DF936C017B018B01040FB8
:10089000151FEB015E01AE18BF08C017D10759F054
:1008A0006991D601ED91FC910190F081E02DC60196
:1008B0000995892B79F7C501DF91CF911F910F9190
:1008C000FF90EF90DF90CF90BF90AF90089590E0B1
:1008D00080E00895FC01538D448D252F30E0842F56
:1008E00090E0821B930B541710F0CF960895019758
:1008F0000895FC01918D828D981761F0A28DAE0F45
:10090000BF2FB11D5D968C91928D9F5F9F73928FCB
:1009100090E008958FEF9FEF0895FC01918D828DF7
:10092000981731F0828DE80FF11D858D90E00895C4
:100930008FEF9FEF0895FC01918D228D892F90E01C
:10094000805C9F4F821B91098F739927089580E4E3
:1009500092E00E949B0421E0892B09F420E0822F81
:10096000089580E090E0892B29F00E94A70481116E
:100970000C9400000895FC01A48DA80FB92FB11D9F
:10098000A35ABF4F2C91848D90E001968F739927C5
:10099000848FA689B7892C93A089B1898C918370A3
:1009A00080648C93938D848D981306C00288F3899C
:1009B000E02D80818F7D80830895EF92FF920F93C9
:1009C0001F93CF93DF93EC0181E0888F9B8D8C8DFB
:1009D00098131AC0E889F989808185FF15C09FB7EF
:1009E000F894EE89FF896083E889F98980818370B2
:1009F000806480839FBF81E090E0DF91CF911F9161
:100A00000F91FF90EF900895F62E0B8D10E00F5F81
:100A10001F4F0F731127E02E8C8D8E110CC00FB657
:100A200007FCFACFE889F989808185FFF5CFCE01EF
:100A30000E94BB04F1CFEB8DEC0FFD2FF11DE35AAB
:100A4000FF4FF0829FB7F8940B8FEA89FB89808172
:100A50008062CFCFCF93DF93EC01888D8823B9F0EC
:100A6000AA89BB89E889F9898C9185FD03C08081B9
:100A700086FD0DC00FB607FCF7CF8C9185FFF2CF36
:100A8000808185FFEDCFCE010E94BB04E9CFDF91CD
:100A9000CF910895CF93DF9300D0CDB7DEB7898390
:100AA0006A838091F1029091F202FC0124813581E8
:100AB00022303105B8F0208131E030931C022093C0
:100AC0003E0210921D0210923F0221E042E050E0EF
:100AD000BE016F5F7F4F0E94C5030F900F90DF91A3
:100AE000CF91089580E0F9CFE9EEF2E0868797870D
:100AF000682F8DE390E00E944A056EE170E080E08F
:100B000090E00C9408042F923F924F925F926F9264
:100B10007F928F929F92AF92BF92CF92DF92EF928D
:100B2000FF920F931F93CF93DF93DC011496ED9107
:100B3000FC911597EF2B09F412C169012A01EC0110
:100B4000888191E090931C0280933E0210921D02D6
:100B500010923F0220E041E050E0CD010E94C50329
:100B6000782E882309F4FBC0F12CE12C3324339434
:100B7000EC14FD0408F0F4C08C819D8186010E19EF
:100B80001F098017910708F48C0128800E94B00289
:100B90004B015C0180911602811173C0602EB0E29E
:100BA000B01710F480E2682E3092160221E0C601E0
:100BB000801B910BE816F90608F420E0209315023B
:100BC000EFEFE0931402109213028FEF860D8093E3
:100BD00012023092F1018091F101220C282A209218
:100BE000F1018091F001813009F090C01092F00184
:100BF0000E94B0024B015C018091F1018093BB0027
:100C00008091180290911902A0911A02B0911B02D2
:100C1000892B8A2B8B2BA1F00E94B0022091180205
:100C20003091190240911A0250911B0268197909FA
:100C30008A099B09261737074807590708F442C055
:100C40008091BC0083FDD8CFF5ECF093BC000E94EE
:100C5000B0024B015C0180911602813009F45AC048
:100C600080911302861510F460901302A2EFB1E098
:100C7000E0EDF1E080E0861551F19D9191938F5F59
:100C8000FACF8091180290911902A0911A02B091A6
:100C90001B02892B8A2B8B2B09F47CCF0E94B0027C
:100CA000209118023091190240911A0250911B02B2
:100CB000681979098A099B092617370748075907D0
:100CC00008F068CF809117020E943702612C1092C1
:100CD000CF016092CE016016110609F040C04201BA
:100CE0008E0C9F1C5401C501881999098017910722
:100CF00098F589819A81DC01ED91FC910284F3855C
:100D0000E02D0995F50181935F01EDCF85EE80938C
:100D1000BC009DCF8091180290911902A0911A02F7
:100D2000B0911B02892B8A2B8B2B09F494CF0E9444
:100D3000B002209118023091190240911A0250918C
:100D40001B02681979098A099B0926173707480782
:100D5000590708F080CFB6CFE00EF11E09CF712CF5
:100D6000872DDF91CF911F910F91FF90EF90DF9032
:100D7000CF90BF90AF909F908F907F906F905F903B
:100D80004F903F902F900895CF93DF931F92CDB750
:100D9000DEB7198221E030E0AE014F5F5F4FBA014C
:100DA0008091F1029091F2020E94830589810F9057
:100DB000DF91CF910895CF93C82F9091ED02292F05
:100DC00028708091E902C7FD07C0222339F09260A4
:100DD0009093ED0261E006C02223C9F39D7F9093BA
:100DE000ED0260E00E94B6016C2FCC0F770B77FF0D
:100DF00003C0719561957109660F771F660F771FA4
:100E00008091EA02CF910C945802CF93C82F909111
:100E1000ED02292F24708091EB02C7FD07C0222329
:100E200039F091609093ED0261E006C02223C9F38E
:100E30009E7F9093ED0260E00E94B6016C2FCC0F74
:100E4000770B77FF03C0719561957109660F771F66
:100E5000660F771F8091EC02CF910C94580280E0CE
:100E60000E94050780E00C94DB06FC010190002045
:100E7000E9F73197AF01481B590BBC0180E492E0C0
:100E80000C943A048F929F92AF92BF920F931F934C
:100E9000CF93DF93CDB7DEB7A1970FB6F894DEBF3F
:100EA0000FBECDBF19A2423008F44AE08E010F5D9B
:100EB0001F4F842E912CB12CA12CA50194010E94CE
:100EC0002410E62FB901CA01EA30F4F4E05DD8013C
:100ED000EE938D01232B242B252B79F790E080E0D6
:100EE000109719F0CD010E943507A1960FB6F8941E
:100EF000DEBF0FBECDBFDF91CF911F910F91BF908D
:100F0000AF909F908F900895E95CE1CFCF92DF92F0
:100F1000EF92FF920F931F93CF93DF9300D000D0F7
:100F200000D01F92CDB7DEB78C01FB018CE0D80159
:100F30001D928A95E9F7AE014F5F5F4F86E0DA01B7
:100F40001D928A95E9F78AE18F8326E030E0BE01A1
:100F5000695F7F4F838194810E948305CB80DC8011
:100F6000ED80FE8069817A81072E000C880B990B39
:100F70000E94611120E030E040E85DE30E9416121B
:100F8000F8016083718382839383B601DD0C880B43
:100F9000990B0E94611120E030E040E85DE30E947F
:100FA0001612D80114966D937D938D939C93179789
:100FB000B701FF0C880B990B0E94611120E030E013
:100FC00040E85DE30E941612F8016087718782870E
:100FD0009387C80127960FB6F894DEBF0FBECDBF2A
:100FE000DF91CF911F910F91FF90EF90DF90CF9005
:100FF0000895CF93DF93CDB7DEB72C970FB6F89453
:10100000DEBF0FBECDBF6EEE72E0CE0101960E9434
:1010100086072091F9023091FA024091FB0250912B
:10102000FC0269857A858B859C850E944C102C96E4
:101030000FB6F894DEBF0FBECDBFDF91CF910895FC
:101040008F929F92AF92BF92CF92DF92EF92FF92D8
:1010500088E491E00E9435070E94F9076B017C014A
:10106000AC019B010E948312882381F085E591E009
:101070000E94350781E691E0FF90EF90DF90CF90DE
:10108000BF90AF909F908F900C9435074601570109
:10109000E894B7F82FEF3FEF4FE75FE7C501B401E2
:1010A0000E94831281110DC02FEF3FEF4FE75FE7E2
:1010B000C501B4010E94B91018161CF489E591E02D
:1010C000D7CF2FEF3FEF4FE75FE4C701B6010E9494
:1010D000111218161CF48DE591E0CACF2FEF3FEFE7
:1010E0004FE75FECC701B6010E94B91087FDF3CF4F
:1010F00020E030E0A901C701B6010E94B91087FFC6
:1011000009C06DE280E492E00E94DD04F7FAF094F9
:10111000F7F8F0942AE037ED43EA5BE3C701B60144
:101120000E944D104B015C010E9430116B017C014B
:101130000E945F119B01AC01C501B4010E944C10DB
:101140004B015C014AE0C701B6010E9442076EE212
:1011500080E492E00E94DD0420E030E040E251E4CF
:10116000C501B4010E9416124B015C010E943011AE
:101170006B01F12CE12C4AE0C701B6010E94420745
:10118000C701B6010E945F119B01AC01C501B4010A
:101190000E944C1020E030E040E251E40E94161220
:1011A0000E94301190E080E04AE00E94420762CF46
:1011B0000F931F93CF93DF93CDB7DEB72C970FB666
:1011C000F894DEBF0FBECDBF8B01FB01349620E249
:1011D000DF011D922A95E9F744E250E060E070E0FB
:1011E000F8014083518362837383DC0115964D912E
:1011F0005D916D917C9118974483558366837783C5
:1012000043E050E060E070E0408751876287738779
:101210002FB7F8944091C6015091C7016091C80161
:101220007091C9012FBF408B518B628B738BBC01B6
:10123000CE0101960E94860789819A81AB81BC818B
:10124000F801848B958BA68BB78B8D819E81AF81A6
:10125000B885808F918FA28FB38F89859A85AB8552
:10126000BC85848F958FA68FB78F81E02C960FB6A3
:10127000F894DEBF0FBECDBFDF91CF911F910F91CC
:1012800008950C9424130F931F93CF93DF938C0135
:10129000EB0188E2FB0111928A95E9F74BE050E0FF
:1012A00064E671E0CE010E94AD131B8681E090E000
:1012B000A0E0B0E08C879D87AE87BF87F80185816D
:1012C0009681A781B085888B998BAA8BBB8B83E095
:1012D00090E0A0E0B0E08C8B9D8BAE8BBF8B1CA20E
:1012E0001DA21EA21FA2188E198E1A8E1B8E1C8E76
:1012F0001D8E1E8E1F8E8AE097EDA3E2BCE388A3AD
:1013000099A3AAA3BBA3DF91CF911F910F91089539
:1013100085ED8093BC008091180290911902A091F4
:101320001A02B0911B020796A11DB11D23E0B695CC
:10133000A795979587952A95D1F72091BC0024FD14
:1013400003C010921602089540911802509119029C
:1013500060911A0270911B02452B462B472B69F3B3
:101360000097A105B10541F025E32A95F1F70000AA
:101370000197A109B109E1CF809117020C943702BE
:101380001F920F920FB60F9211242F933F934F93FA
:101390005F936F937F938F939F93AF93BF93EF93DD
:1013A000FF938091B900887F803609F44AC0F0F538
:1013B000883209F4A7C018F5803109F49BC0B8F44D
:1013C000882309F4F9C0883009F494C0FF91EF91A3
:1013D000BF91AF919F918F917F916F915F914F914D
:1013E0003F912F910F900FBE0F901F90189588314D
:1013F00009F488C0803251F78093140214C08034FD
:1014000009F49DC040F48033B9F38833F9F6809332
:10141000140285ECB0C0803509F485C0883509F424
:1014200096C0883499F60E948809D0CF883909F48B
:101430008CC038F5883729F050F4883611F08037A1
:1014400029F683E0809316021092C50157C08838B0
:1014500009F47BC0803919F0803809F0B7CF80914A
:10146000C501803208F071C0E091C50181E08E0FA6
:101470008093C5018091BB00F0E0EB55FE4F808367
:101480003DC0803B39F0E0F4803A09F479C0883AF5
:1014900009F09CCF84E0809316021092A401109270
:1014A000A301E091CC01F091CD0109958091A301B8
:1014B00081110FC081E08093A3011092830109C0C4
:1014C000803C09F4A6CF883C09F4A3CF883B09F0FF
:1014D0007DCFE091A40181E08E0F8093A401F0E024
:1014E000ED57FE4F80818093BB009091A4018091C5
:1014F000A30129C08091F1018093BB0085EC80930A
:10150000BC0064CF9091130280911202981758F595
:10151000E091130281E08E0F80931302F0E0EE5011
:10152000FE4F8081E9CFE091130281E08E0F80931E
:1015300013028091BB00F0E0EE50FE4F808390914B
:101540001302809112029817C8F285E8D8CFE09173
:10155000130281E08E0F809313028091BB00F0E0B4
:10156000EE50FE4F80838091150281115CCF81E0A7
:101570008093F00184EA8093BC001092160226CF7B
:1015800085EC8093BC00109216028091C5018032D8
:1015900030F4E091C501F0E0EB55FE4F1082609110
:1015A000C50170E0E091CA01F091CB0185EA91E0BC
:1015B00009951092C5010ACF1092140234CF1F92E0
:1015C0000F920FB60F9211242F933F938F939F93F7
:1015D000AF93BF938091C6019091C701A091C801BC
:1015E000B091C90130917D0123E0230F2D3758F5CB
:1015F0000196A11DB11D20937D018093C60190939A
:10160000C701A093C801B093C90180917E01909158
:101610007F01A0918001B09181010196A11DB11DB2
:1016200080937E0190937F01A0938001B09381010C
:10163000BF91AF919F918F913F912F910F900FBECE
:101640000F901F90189526E8230F0296A11DB11D3B
:10165000D2CF1F920F920FB60F9211242F933F9368
:101660004F935F936F937F938F939F93AF93BF93AA
:10167000EF93FF9380E492E00E94BB04FF91EF910F
:10168000BF91AF919F918F917F916F915F914F919A
:101690003F912F910F900FBE0F901F9018951F92A2
:1016A0000F920FB60F9211242F938F939F93EF9366
:1016B000FF93E0915002F09151028081E091560237
:1016C000F091570282FD1BC09081809159028F5F7B
:1016D0008F7320915A02821741F0E0915902F0E095
:1016E000E05CFD4F958F80935902FF91EF919F91A0
:1016F0008F912F910F900FBE0F901F9018958081A2
:10170000F4CF1F920F920FB60F921124CF92DF9257
:10171000EF92FF922F933F934F935F936F937F933B
:101720008F939F93AF93BF93EF93FF93C090090361
:10173000D0900A03E0900B03F0900C038091FE021E
:10174000823009F04FC0C114D104E104F10409F45E
:10175000D5C08091FD02882309F45BC0E09111039C
:10176000F0911203309741F080911303909114038C
:10177000009709F44CC009958091010390910203F0
:10178000A0910303B09104038F3F9105A105B1051A
:10179000B9F0B4F0F8948091010390910203A09104
:1017A0000303B09104038093050390930603A09371
:1017B0000703B09308030E94A8001092FD027894DA
:1017C0001C141D041E041F046CF421E0C21AD1086D
:1017D000E108F108C0920903D0920A03E0920B03DA
:1017E000F0920C03FF91EF91BF91AF919F918F9178
:1017F0007F916F915F914F913F912F91FF90EF906B
:10180000DF90CF900F900FBE0F901F901895099505
:10181000B3CFF8942091FE028091050390910603C6
:10182000A0910703B0910803223009F447C08F3F0D
:101830009F4FA105B10510F40E94A80080910503F7
:1018400090910603A0910703B0910803AC01BD017C
:10185000009721E0A207B10520F04FEF5FEF60E0B5
:1018600070E0841B950BA60BB70B80930503909338
:101870000603A0930703B09308038091050390919A
:101880000603A0910703B0910803892B8A2B8B2BA9
:1018900091F58091010390910203A0910303B0910F
:1018A00004038093050390930603A0930703B0936A
:1018B000080381E08093FD02789494CF8F3F9105D7
:1018C000A105B10510F40E94A80080910503909134
:1018D0000603A0910703B0910803AC01BD018F3F3F
:1018E0009105A105B10509F008F4BBCF4FEF50E019
:1018F00060E070E0B6CF1092FD02DECFF8948091E8
:10190000FE02813041F08230B9F6809170008D7F07
:1019100080937000D1CF80916F008D7F80936F0096
:10192000CBCFBF92CF92DF92EF92FF920F931F9394
:10193000CF93DF93CDB7DEB72B970FB6F894DEBF0A
:101940000FBECDBF8DEDC82E82E0D82E1092E002E2
:101950001092DF0288EE93E0A0E0B0E08093E10215
:101960009093E202A093E302B093E4022AE131E013
:101970003093DE022093DD02109243021092420265
:101980008093440290934502A0934602B09347028D
:101990008CE291E0909341028093400285EC90E0CC
:1019A00090934D0280934C0284EC90E090934F0210
:1019B00080934E0280EC90E090935102809350020D
:1019C00081EC90E0909353028093520282EC90E07D
:1019D000909355028093540286EC90E090935702C6
:1019E000809356021092590210925A0210925B0292
:1019F00010925C0282E08093FE0210920D0310921E
:101A00000E0310920F031092100310921203109203
:101A1000110310921403109213031092FD0281E03F
:101A200090E0909300038093FF02109201031092C4
:101A30000203109203031092040310920503109204
:101A4000060310920703109208038FEF9FEFDC014B
:101A50008093090390930A03A0930B03B0930C03A4
:101A60002EE331E03093EF022093EE028093F302F5
:101A70009093F402A093F502B093F60286E090E012
:101A80000E948812FC0198E2B92EB082D282C182F3
:101A9000138220E2E22EF12CF582E48286E090E0CF
:101AA0000E9488128C01FC01B082D282C182138212
:101AB000F582E4828B818093F0021093F20200930E
:101AC000F1028A859B859093F8028093F7020E9429
:101AD000200281E0F801838305E510E0DD24D39442
:101AE000E090F102F090F2020E942002F701D3820E
:101AF000C7010E94E3038111AEC06AE070E080E09C
:101B000090E00E9408040150110951F78BE691E022
:101B10000E94350781E691E00E9435072BC062E301
:101B200070E080E090E00E94080460E08EE390E0C6
:101B30000E944A056AE070E080E090E00E9408049C
:101B400060E087E090E00E944A0560E08FE390E06B
:101B50000E944A056AE070E080E090E00E9408047C
:101B60008CE090E00E94740564E170E080E090E019
:101B70000E9408040091F7021091F80290E080E0C2
:101B80000E94740569E170E080E090E00E94080422
:101B900060E087E090E00E944A0560E88FE390E013
:101BA0000E944A056AE070E080E090E00E9408042C
:101BB000C8010E94740564E170E080E090E00E943A
:101BC00008041092F9021092FA021092FB0210928D
:101BD000FC021092ED0287E08093E90286E0809398
:101BE000EA0285E08093EB0284E08093EC0287E0D8
:101BF0000E9487008091EA020E9487008091EB0298
:101C00000E9487008091EC020E9487008091ED0283
:101C10008D7F8093ED0260E08091E9020E94B60121
:101C20008091ED028E7F8093ED0260E08091EB0267
:101C30000E94B6012B960FB6F894DEBF0FBECDBF43
:101C4000DF91CF911F910F91FF90EF90DF90CF9098
:101C5000BF900C942F070E94C406803A59F068EE9A
:101C600073E080E090E00E9408040E94C406803A7D
:101C700009F04CCF90E080E00E94740560E28FE3B1
:101C800090E00E944A056EE170E080E090E00E94E2
:101C900008040E94C406803A09F441CF6AE070E06B
:101CA00080E090E0F4CF789484B5826084BD84B500
:101CB000816084BD85B5826085BD85B5816085BD47
:101CC00080916E00816080936E00109281008091FF
:101CD0008100826080938100809181008160809387
:101CE0008100809180008160809380008091B100AC
:101CF00084608093B1008091B00081608093B000D7
:101D000080917A00846080937A0080917A0082606A
:101D100080937A0080917A00816080937A0080912C
:101D20007A00806880937A001092C100E09150029E
:101D3000F091510282E08083E0914C02F0914D02DB
:101D40001082E0914E02F0914F028FEC808310924E
:101D50005802E0915402F091550286E08083E091B0
:101D60005202F0915302808180618083E09152029F
:101D7000F0915302808188608083E0915202F0915B
:101D80005302808180688083E0915202F091530277
:101D900080818F7D80838091ED02877F8460809336
:101DA000ED021092F9021092FA021092FB021092C8
:101DB000FC028091FE02F894813099F1823009F49E
:101DC0003FC08093FE0278948091FE0218160CF0BA
:101DD000A7C04FEF5FEFBA014093090350930A0386
:101DE00060930B0370930C038230C9F18FEF93E281
:101DF000A4EFB0E08093010390930203A093030348
:101E0000B09304038093050390930603A093070304
:101E1000B093080381E090E0909300038093FF0269
:101E200056C01092800010928100909181009860BD
:101E30009093810090918100916090938100C1CF37
:101E40001092B0001092B1009091B0009260909307
:101E5000B0009091B10091609093B100B2CF08E0D2
:101E600011E0C1E0D0E0F801619171918F0190E043
:101E700080E00E945F119B01AC0160E074E284E7A6
:101E80009BE40E94BE1020E030E040E85FE30E9447
:101E90004C100E9430116115F0EC7F07FFE38F07B3
:101EA000910508F0ADC06093010370930203809325
:101EB00003039093040360930503709306038093D8
:101EC000070390930803D0930003C093FF02F89494
:101ED00080E090E0A0E8BFE380930D0390930E03B1
:101EE000A0930F03B093100380E298E09093120345
:101EF0008093110310921403109213031092FD02A9
:101F00008091FE02823009F093C08091B100887FF9
:101F10009091FF02892B8093B1000E94A8007894D1
:101F200010927C01C0E0D0E011E080917C01811131
:101F30005CC010937C0180E40E94DB0680E40E9478
:101F4000050760ED77E080E090E00E9408040E94C1
:101F50002F0764EF71E080E090E00E94080480ECBD
:101F60000E94DB0680E40E9405070E94F90720E03A
:101F700030E044EB52E40E94B91087FDF6CF0E9496
:101F80002F0764EF71E080E090E00E9408040E9457
:101F9000F9076B017C0180E40E94DB0680EC0E9463
:101FA00005070E94F9079B01AC01C701B6010E9419
:101FB0004C1020E030E044EB52E40E94B91087FD61
:101FC000F0CF0E942F0764EF71E080E090E00E9464
:101FD00008048FE70E94DB068FE70E94050768EE82
:101FE00073E080E090E00E940804209709F49DCF00
:101FF0000E94A704882309F498CF0E94000095CF7F
:102000002196C830D10509F02ECF6093010370935B
:10201000020380930303909304036093050370937A
:102020000603809307039093080387E090E0F4CEC3
:10203000813009F072CF80918100887F9091FF02FA
:10204000892B8093810069CFA1E21A2EAA1BBB1BAA
:10205000FD010DC0AA1FBB1FEE1FFF1FA217B30774
:10206000E407F50720F0A21BB30BE40BF50B661F8A
:10207000771F881F991F1A9469F76095709580954E
:1020800090959B01AC01BD01CF010895EE0FFF1F9C
:102090000590F491E02D09945058BB27AA270E947F
:1020A00064100C94D7110E94C91138F00E94D0110D
:1020B00020F039F49F3F19F426F40C94C6110EF465
:1020C000E095E7FB0C94C011E92F0E94E81158F34A
:1020D000BA17620773078407950720F079F4A6F50D
:1020E0000C940A120EF4E0950B2EBA2FA02D0B01C2
:1020F000B90190010C01CA01A0011124FF27591B4D
:1021000099F0593F50F4503E68F11A16F040A22F52
:10211000232F342F4427585FF3CF469537952795C3
:10212000A795F0405395C9F77EF41F16BA0B620BC2
:10213000730B840BBAF09150A1F0FF0FBB1F661F09
:10214000771F881FC2F70EC0BA0F621F731F841F4C
:1021500048F4879577956795B795F7959E3F08F072
:10216000B0CF9395880F08F09927EE0F9795879534
:1021700008950E949C1108F481E008950E94D210F5
:102180000C94D7110E94D01158F00E94C91140F050
:1021900029F45F3F29F00C94C01151110C940B12DB
:1021A0000C94C6110E94E81168F39923B1F35523EA
:1021B00091F3951B550BBB27AA276217730784075A
:1021C00038F09F5F5F4F220F331F441FAA1FA9F3F0
:1021D00035D00E2E3AF0E0E832D091505040E695DE
:1021E000001CCAF72BD0FE2F29D0660F771F881F3F
:1021F000BB1F261737074807AB07B0E809F0BB0B32
:10220000802DBF01FF2793585F4F3AF09E3F510545
:1022100078F00C94C0110C940B125F3FE4F3983EDD
:10222000D4F3869577956795B795F7959F5FC9F72E
:10223000880F911D9695879597F90895E1E0660FAF
:10224000771F881FBB1F621773078407BA0720F028
:10225000621B730B840BBA0BEE1F88F7E095089591
:102260000E94F01188F09F5798F0B92F9927B75125
:10227000B0F0E1F0660F771F881F991F1AF0BA952A
:10228000C9F714C0B13091F00E940A12B1E008956C
:102290000C940A12672F782F8827B85F39F0B93F5E
:1022A000CCF3869577956795B395D9F73EF49095DD
:1022B0008095709561957F4F8F4F9F4F0895E8945B
:1022C00009C097FB3EF490958095709561957F4F7E
:1022D0008F4F9F4F9923A9F0F92F96E9BB2793952C
:1022E000F695879577956795B795F111F8CFFAF43C
:1022F000BB0F11F460FF1BC06F5F7F4F8F4F9F4F6D
:1023000016C0882311F096E911C0772321F09EE8CA
:10231000872F762F05C0662371F096E8862F70E030
:1023200060E02AF09A95660F771F881FDAF7880F0A
:102330009695879597F90895990F0008550FAA0B60
:10234000E0E8FEEF16161706E807F907C0F01216C8
:102350001306E407F50798F0621B730B840B950BCB
:1023600039F40A2661F0232B242B252B21F4089520
:102370000A2609F4A140A6958FEF811D811D0895BD
:1023800097F99F6780E870E060E008959FEF80EC28
:10239000089500240A9416161706180609060895CB
:1023A00000240A9412161306140605060895092E31
:1023B0000394000C11F4882352F0BB0F40F4BF2BA0
:1023C00011F460FF04C06F5F7F4F8F4F9F4F0895E0
:1023D00057FD9058440F551F59F05F3F71F04795D6
:1023E000880F97FB991F61F09F3F79F087950895BB
:1023F000121613061406551FF2CF4695F1DF08C0DA
:10240000161617061806991FF1CF869571056105F6
:1024100008940895E894BB2766277727CB0197F99E
:1024200008950E949C1108F48FEF08950E942912CC
:102430000C94D7110E94C91138F00E94D01120F0DD
:10244000952311F00C94C0110C94C61111240C9416
:102450000B120E94E81170F3959FC1F3950F50E0A5
:10246000551F629FF001729FBB27F00DB11D639F46
:10247000AA27F00DB11DAA1F649F6627B00DA11DEC
:10248000661F829F2227B00DA11D621F739FB00D92
:10249000A11D621F839FA00D611D221F749F332702
:1024A000A00D611D231F849F600D211D822F762F9B
:1024B0006A2F11249F5750409AF0F1F088234AF078
:1024C000EE0FFF1FBB1F661F771F881F91505040E4
:1024D000A9F79E3F510580F00C94C0110C940B128B
:1024E0005F3FE4F3983ED4F3869577956795B7956B
:1024F000F795E7959F5FC1F7FE2B880F911D969585
:10250000879597F908950E949C11880B990B08955F
:102510000F931F93CF93DF938230910510F482E0E5
:1025200090E0E0911703F091180330E020E0B0E074
:10253000A0E0309799F42115310509F44AC0281B11
:10254000390B24303105D8F58A819B8161157105DD
:1025500089F1FB0193838283FE0111C04081518187
:102560000281138148175907E0F04817590799F479
:10257000109761F012960C93129713961C93329653
:10258000CF01DF91CF911F910F9108950093170311
:1025900010931803F4CF2115310551F0421753075A
:1025A00038F0A901DB019A01BD01DF01F801C1CFBB
:1025B000EF01F9CF9093180380931703CDCFFE015D
:1025C000E20FF31F819391932250310939832883BD
:1025D000D7CF2091150330911603232B41F420917E
:1025E00002013091030130931603209315032091CB
:1025F0000001309101012115310541F42DB73EB79D
:102600004091040150910501241B350BE091150305
:10261000F0911603E217F307A0F42E1B3F0B2817C7
:10262000390778F0AC014E5F5F4F2417350748F04B
:102630004E0F5F1F509316034093150381939193A0
:102640009FCFF0E0E0E09CCFCF93DF930097E9F0DD
:10265000FC01329713821282A0911703B0911803E4
:10266000ED0130E020E01097A1F420813181820F4C
:10267000931F20911503309116032817390709F08D
:1026800061C0F0931603E0931503DF91CF91089595
:10269000EA01CE17DF07E8F54A815B819E0141150B
:1026A0005105B1F7E901FB83EA8349915991C40FC0
:1026B000D51FEC17FD0761F4808191810296840F8C
:1026C000951FE90199838883828193819B838A8303
:1026D000F0E0E0E012968D919C9113970097B9F588
:1026E0002D913C911197CD010296820F931F20915D
:1026F0001503309116032817390739F6309751F52D
:102700001092180310921703B0931603A0931503A9
:10271000BCCFD383C28340815181840F951FC817DA
:10272000D90761F44E5F5F4F88819981480F591F27
:10273000518340838A819B81938382832115310554
:1027400009F0B0CFF0931803E09317039ECFFD017B
:10275000DC01C0CF13821282D7CFFB01DC014150D4
:10276000504048F001900D920020C9F701C01D9221
:0C27700041505040E0F70895F894FFCF6E
:10277C000000190380000100010008002000400047
:10278C008000000100040000000087015A0167046A
:10279C00300153014001310100000000DD043A0416
:1027AC006A042A059B0479048D04000000000701CB
:1027BC0041090801D80843094779726F20616E6797
:1027CC006C653A20006E616E00696E66006F76660D
:1027DC00000D0A00424E4F303535004E6F206779A0
:0C27EC00726F206465746563746564009E
:00000001FF
