:100000000C945D000C9485000C9485000C94850084
:100010000C9485000C9485000C9485000C94E70AE0
:100020000C9485000C9485000C9485000C9485003C
:100030000C9485000C9485000C9485000C9485002C
:100040000C94450A0C9485000C94B50A0C948F0A04
:100050000C9485000C9485000C9485000C9485000C
:100060000C9426090C948500000000080002010091
:100070000003040700000000000000000000000072
:10008000250028002B0000000000240027002A0083
:10009000040404040404040402020202020203032E
:1000A0000303030301020408102040800102040836
:1000B0001020010204081020F70B11241FBECFEFFF
:1000C000D8E0DEBFCDBF11E0A0E0B1E0EAE7F5E2A5
:1000D00002C005900D92A039B107D9F723E0A0E93D
:1000E000B1E001C01D92AD32B207E1F710E0CDE5FD
:1000F000D0E004C02197FE010E94B70FCC35D10794
:10010000C9F70E94740C0C94BB120C9400008091EF
:10011000190390911A03A0911B03B0911C03209125
:100120001203213091F0223089F1809119039091CE
:100130001A03A0911B03B0911C03892B8A2B8B2BD4
:1001400019F481E0809311030895AC01BD0100977B
:1001500021E0A207B10520F04FEF5FEF60E070E013
:100160005093890040938800841B950BA60BB70B16
:100170008093190390931A03A0931B03B0931C035D
:1001800080916F00826080936F00CFCFAC01BD0182
:100190008F3F9105A105B10529F020F04FEF50E008
:1001A00060E070E04093B300841B950BA60BB70B87
:1001B0008093190390931A03A0931B03B0931C031D
:1001C00080917000826080937000AFCF90E0FC015E
:1001D000EC55FF4F249180579F4FFC018491882359
:1001E00099F090E0880F991FFC01EA57FF4FA59105
:1001F000B491FC01E458FF4F859194918FB7F89426
:10020000EC91E22BEC938FBF089508950895089523
:1002100008952091B601260F3327331F213231056F
:10022000ECF420912902FC0190E080E0243069F098
:1002300082E00895A091B6012191AC014A565E4F2B
:10024000A40FB52FB11D2C930196861798F38091BA
:10025000B601680F6093B60180E0089581E00895CB
:100260000895E091E2018091E101E81730F4F0E0B7
:10027000ED51FE4F808190E008958FEF9FEF08953C
:100280009091E2018091E1012FEF3FEF981748F440
:10029000E92FF0E0ED51FE4F208130E09F5F909319
:1002A000E201C90108958091E1019091E201891B69
:1002B000990B0895CF92DF92EF92FF920F931F93C5
:1002C000CF93DF937C01CB018A0120912F0222235F
:1002D00089F0EB016B01C40ED51ECC15DD0569F06C
:1002E0006991D701ED91FC910190F081E02DC7015A
:1002F0000995F3CF642F0E940901C801DF91CF91C6
:100300001F910F91FF90EF90DF90CF900895CF93C2
:10031000DF931F92CDB7DEB7698320912F0222238E
:10032000F9F020915202203258F021E030E0FC0137
:100330003383228390E080E00F90DF91CF91089586
:1003400080913002E82FF0E0EF5CFD4F99819083BF
:100350008F5F809330028093520281E090E0ECCF77
:1003600061E0CE0101960E940901F7CF90E0FC0107
:10037000E859FF4F2491FC01EC55FF4F3491FC01EB
:10038000E057FF4FE491EE23C9F0222339F02330E8
:1003900001F1A8F4213019F1223029F1F0E0EE0F3B
:1003A000FF1FE458FF4FA591B4918FB7F894EC91DB
:1003B000611126C030953E233C938FBF08952730AE
:1003C000A9F02830C9F0243049F7809180008F7D52
:1003D00003C0809180008F7780938000DFCF84B549
:1003E0008F7784BDDBCF84B58F7DFBCF8091B0004C
:1003F0008F778093B000D2CF8091B0008F7DF9CFFE
:100400003E2BDACF1092290281E0809328021092CD
:10041000030261E082E10E94B60161E083E10E9493
:10042000B601E9EBF0E080818E7F808380818D7F53
:10043000808388E48093B80085E48093BC000895AD
:100440001092E2011092E1011092300210925202D9
:100450000E94020285E091E09093E0018093DF0129
:1004600086E091E09093DE018093DD010895CF93C3
:10047000DF9391E0909395018823B9F0C091B80083
:10048000D091BA008091BC008A7B8093BC0060E070
:1004900082E10E94B60160E083E10E94B6010E9401
:1004A0000202D093BA00C093B800DF91CF910895B3
:1004B0001F93CF93DF93182FEB010E94E600209744
:1004C00039F460E0812FDF91CF911F910C94B60138
:1004D000E12FF0E0E859FF4FE491E33039F148F4BF
:1004E000E130B9F0E230E9F0C038D10554F361E011
:1004F000E9CFE73029F1E83059F1E430A9F78091EC
:100500008000806280938000D0938B00C0938A002B
:1005100004C084B5806884BDC7BDDF91CF911F91B1
:10052000089584B5806284BDC8BDF7CF80918000F6
:10053000806880938000D0938900C0938800EDCFBD
:100540008091B00080688093B000C093B300E5CF85
:100550008091B00080628093B000C093B400DDCF82
:100560003FB7F8948091910190919201A0919301ED
:10057000B091940126B5A89B05C02F3F19F00196B4
:10058000A11DB11D3FBFBA2FA92F982F8827BC01ED
:10059000CD01620F711D811D911D42E0660F771F15
:1005A000881F991F4A95D1F708958F929F92AF9215
:1005B000BF92CF92DF92EF92FF920F931F93CF9350
:1005C000DF93D0915202D13208F0D7C0182FC091DA
:1005D00051020E94B0026B017C01809129028111BD
:1005E0006BC082E080932902109328028FEF8093E2
:1005F000270210922602D0932502A1E3B2E0E5E0A3
:10060000F2E080E0D81391C01092040280910402BD
:10061000CC0FC82BC093040280910302813009F0F3
:1006200088C0109203020E94B0026B017C0180918D
:1006300004028093BB0080912B0290912C02A09128
:100640002D02B0912E02892B8A2B8B2BA1F00E94B8
:10065000B00200912B0210912C0220912D023091BA
:100660002E026C197D098E099F09061717072807A6
:10067000390708F442C08091BC0083FDD8CF85ECD7
:100680008093BC000E94B0026B017C018091290222
:10069000823009F450C0809127028F3F09F46FC067
:1006A00080912702803209F46CC080912702803348
:1006B00009F469C084E026C080912B0290912C023D
:1006C000A0912D02B0912E02892B8A2B8B2B09F43D
:1006D00084CF0E94B00280902B0290902C02A090B8
:1006E0002D02B0902E026C197D098E099F09861685
:1006F0009706A806B90608F070CF80912A020E94DA
:10070000370285E0109230021092520210922F02AE
:10071000DF91CF911F910F91FF90EF90DF90CF90DD
:10072000BF90AF909F908F9008959D9191938F5F10
:1007300069CF85EEA5CF80912B0290912C02A091DC
:100740002D02B0912E02892B8A2B8B2B09F49ECF80
:100750000E94B00200912B0210912C0220912D02D8
:1007600030912E026C197D098E099F090617170713
:100770002807390708F08ACFC0CF81E0C3CF80E0D7
:10078000C1CF82E0BFCF83E0BDCF1F93CF93DF9374
:10079000EA01122FDC0111968D919C91DC01ED9103
:1007A000FC910280F381E02D0995C817D90729F43F
:1007B000812F0E94D50291E0811190E0892FDF9175
:1007C000CF911F910895CF93DF93EC018B81882304
:1007D000A1F0888191E090932F02809351021092B2
:1007E00030021092520281E00E94D50291E0811104
:1007F00090E0892FDF91CF9108950E94200281E03F
:100800008B83CE010E94E303982F8111E2CFF1CFB9
:100810008F929F92AF92BF92CF92DF92EF92FF9210
:100820004B015C010E94B0026B017C010E94B0028E
:100830006C197D098E099F09683E734081059105F9
:10084000A8F321E0821A9108A108B10888EEC80E29
:1008500083E0D81EE11CF11C81149104A104B104B1
:1008600029F7FF90EF90DF90CF90BF90AF909F90CF
:100870008F900895AF92BF92CF92DF92EF92FF9246
:100880000F931F93CF93DF936C017B018B01040FB8
:10089000151FEB015E01AE18BF08C017D10759F054
:1008A0006991D601ED91FC910190F081E02DC60196
:1008B0000995892B79F7C501DF91CF911F910F9190
:1008C000FF90EF90DF90CF90BF90AF90089590E0B1
:1008D00080E00895FC01538D448D252F30E0842F56
:1008E00090E0821B930B541710F0CF960895019758
:1008F0000895FC01918D828D981761F0A28DAE0F45
:10090000BF2FB11D5D968C91928D9F5F9F73928FCB
:1009100090E008958FEF9FEF0895FC01918D828DF7
:10092000981731F0828DE80FF11D858D90E00895C4
:100930008FEF9FEF0895FC01918D228D892F90E01C
:10094000805C9F4F821B91098F739927089583E5DF
:1009500092E00E949B0421E0892B09F420E0822F81
:10096000089580E090E0892B29F00E94A70481116E
:100970000C9400000895FC01A48DA80FB92FB11D9F
:10098000A35ABF4F2C91848D90E001968F739927C5
:10099000848FA689B7892C93A089B1898C918370A3
:1009A00080648C93938D848D981306C00288F3899C
:1009B000E02D80818F7D80830895EF92FF920F93C9
:1009C0001F93CF93DF93EC0181E0888F9B8D8C8DFB
:1009D00098131AC0E889F989808185FF15C09FB7EF
:1009E000F894EE89FF896083E889F98980818370B2
:1009F000806480839FBF81E090E0DF91CF911F9161
:100A00000F91FF90EF900895F62E0B8D10E00F5F81
:100A10001F4F0F731127E02E8C8D8E110CC00FB657
:100A200007FCFACFE889F989808185FFF5CFCE01EF
:100A30000E94BB04F1CFEB8DEC0FFD2FF11DE35AAB
:100A4000FF4FF0829FB7F8940B8FEA89FB89808172
:100A50008062CFCFCF93DF93EC01888D8823B9F0EC
:100A6000AA89BB89E889F9898C9185FD03C08081B9
:100A700086FD0DC00FB607FCF7CF8C9185FFF2CF36
:100A8000808185FFEDCFCE010E94BB04E9CFDF91CD
:100A9000CF910895FC0101900020E9F73197AF0153
:100AA000481B590BBC0183E592E00C943A048F92E9
:100AB0009F92AF92BF920F931F93CF93DF93CDB7C7
:100AC000DEB7A1970FB6F894DEBF0FBECDBF19A257
:100AD000423008F44AE08E010F5D1F4F842E912CA6
:100AE000B12CA12CA50194010E94950FE62FB9010C
:100AF000CA01EA30F4F4E05DD801EE938D01232BB6
:100B0000242B252B79F790E080E0109719F0CD0188
:100B10000E944A05A1960FB6F894DEBF0FBECDBF66
:100B2000DF91CF911F910F91BF90AF909F908F90C9
:100B30000895E95CE1CFCF93DF930E944A05EC0171
:100B400088E391E00E944A058C0F9D1FDF91CF91B1
:100B50000895CF93DF9300D0CDB7DEB769834A8382
:100B6000FC0183819481FC0124813581223031058F
:100B7000B8F0208131E030932F022093510210927F
:100B800030021092520221E042E050E0BE016F5F5D
:100B90007F4F0E94C5030F900F90DF91CF91089572
:100BA00080E0F9CF462FFC01618772876DE370E02A
:100BB0000E94A9056EE170E080E090E00C940804CA
:100BC0002F923F924F925F926F927F928F929F925D
:100BD000AF92BF92CF92DF92EF92FF920F931F934B
:100BE000CF93DF93DC011496ED91FC911597EF2BD9
:100BF00009F412C169012A01EC01888191E0909306
:100C00002F0280935102109230021092520220E083
:100C100041E050E0CD010E94C503782E882309F4FD
:100C2000FBC0F12CE12C33243394EC14FD0408F0C8
:100C3000F4C08C819D8186010E191F0980179107D0
:100C400008F48C0128800E94B0024B015C01809165
:100C50002902811173C0602EB0E2B01710F480E257
:100C6000682E3092290221E0C601801B910BE81604
:100C7000F90608F420E020932802EFEFE093270222
:100C8000109226028FEF860D809325023092040287
:100C900080910402220C282A2092040280910302EF
:100CA000813009F090C0109203020E94B0024B0103
:100CB0005C01809104028093BB0080912B02909193
:100CC0002C02A0912D02B0912E02892B8A2B8B2B06
:100CD000A1F00E94B00220912B0230912C02409191
:100CE0002D0250912E02681979098A099B0926174D
:100CF00037074807590708F442C08091BC0083FDBC
:100D0000D8CFF5ECF093BC000E94B0024B015C011F
:100D100080912902813009F45AC0809126028615FB
:100D200010F460902602A5E0B2E0E3EEF1E080E08E
:100D3000861551F19D9191938F5FFACF80912B028F
:100D400090912C02A0912D02B0912E02892B8A2B1A
:100D50008B2B09F47CCF0E94B00220912B023091A2
:100D60002C0240912D0250912E02681979098A09AE
:100D70009B09261737074807590708F068CF809165
:100D80002A020E943702612C1092E2016092E10176
:100D90006016110609F040C042018E0C9F1C5401E0
:100DA000C501881999098017910798F589819A8159
:100DB000DC01ED91FC910284F385E02D0995F501AC
:100DC00081935F01EDCF85EE8093BC009DCF809134
:100DD0002B0290912C02A0912D02B0912E02892B12
:100DE0008A2B8B2B09F494CF0E94B00220912B0206
:100DF00030912C0240912D0250912E0268197909F0
:100E00008A099B09261737074807590708F080CF3A
:100E1000B6CFE00EF11E09CF712C872DDF91CF9157
:100E20001F910F91FF90EF90DF90CF90BF90AF9008
:100E30009F908F907F906F905F904F903F902F90FA
:100E40000895CF93DF931F92CDB7DEB7198221E0CB
:100E500030E0AE014F5F5F4FBA01FC0183819481A6
:100E60000E94E00589810F90DF91CF9108951F9333
:100E7000CF93DF93EC01162F9D81292F24708A8157
:100E800067FD06C0222331F091609D8361E005C0BB
:100E90002223D1F39E7F9D8360E00E94B601612FE3
:100EA000110F770B77FF03C0719561957109660F7C
:100EB000771F8B81DF91CF911F910C9458021F9364
:100EC000CF93DF93EC01162F9D81292F2870888105
:100ED00067FD06C0222331F092609D8361E005C06A
:100EE0002223D1F39D7F9D8360E00E94B601612F94
:100EF000110F770B77FF03C0719561957109660F2C
:100F0000771F8981DF91CF911F910C945802CF9266
:100F1000DF92EF92FF920F931F93CF93DF9300D056
:100F200000D000D01F92CDB7DEB78C01FB018CE062
:100F3000D8011D928A95E9F7AE014F5F5F4F86E0B9
:100F4000DA011D928A95E9F78AE18F8326E030E085
:100F5000BE01695F7F4F838194810E94E005CB8051
:100F6000DC80ED80FE8069817A81072E000C880B81
:100F7000990B0E94601020E030E040E85DE30E94A1
:100F80001511F8016083718382839383B601DD0CB0
:100F9000880B990B0E94601020E030E040E85DE390
:100FA0000E941511D80114966D937D938D939C9397
:100FB0001797B701FF0C880B990B0E94601020E077
:100FC00030E040E85DE30E941511F8016087718709
:100FD00082879387C80127960FB6F894DEBF0FBEAD
:100FE000CDBFDF91CF911F910F91FF90EF90DF90D8
:100FF000CF900895CF92DF92EF92FF92CF93DF933D
:10100000CDB7DEB72C970FB6F894DEBF0FBECDBFBD
:1010100062E073E0CE0101960E94870720910D03E4
:1010200030910E0340910F035091100369817A8132
:101030008B819C810E94BD0F6B017C0120E030E020
:10104000A9010E942A1087FF0AC020E030E044EB8B
:1010500053E4C701B6010E94BE0F6B017C01C701BA
:10106000B6012C960FB6F894DEBF0FBECDBFDF9150
:10107000CF91FF90EF90DF90CF9008950F931F9343
:10108000CF93DF93CDB7DEB72C970FB6F894DEBFC2
:101090000FBECDBF8B01FB01349620E2DF011D9214
:1010A0002A95E9F744E250E060E070E0F8014083FF
:1010B000518362837383DC0115964D915D916D912F
:1010C0007C911897448355836683778343E050E08F
:1010D00060E070E040875187628773872FB7F8948C
:1010E0004091D9015091DA016091DB017091DC01EE
:1010F0002FBF408B518B628B738BBC01CE0101964D
:101100000E94870789819A81AB81BC81F801848B19
:10111000958BA68BB78B8D819E81AF81B885808F93
:10112000918FA28FB38F89859A85AB85BC85848F7B
:10113000958FA68FB78F81E02C960FB6F894DEBFFF
:101140000FBECDBFDF91CF911F910F9108950C94E9
:1011500023120F931F93CF93DF938C01EB0188E24F
:10116000FB0111928A95E9F74BE050E06BE371E0E7
:10117000CE010E94AC121B8681E090E0A0E0B0E0BE
:101180008C879D87AE87BF87F80185819681A7816F
:10119000B085888B998BAA8BBB8B83E090E0A0E015
:1011A000B0E08C8B9D8BAE8BBF8B1CA21DA21EA2B0
:1011B0001FA2188E198E1A8E1B8E1C8E1D8E1E8ECF
:1011C0001F8E8AE097EDA3E2BCE388A399A3AAA3AC
:1011D000BBA3DF91CF911F910F91089585ED80936F
:1011E000BC0080912B0290912C02A0912D02B09115
:1011F0002E020796A11DB11D23E0B695A7959795E0
:1012000087952A95D1F72091BC0024FD03C0109248
:101210002902089540912B0250912C0260912D02D9
:1012200070912E02452B462B472B69F30097A105A1
:10123000B10541F025E32A95F1F700000197A109D6
:10124000B109E1CF80912A020C9437021F920F92CC
:101250000FB60F9211242F933F934F935F936F9389
:101260007F938F939F93AF93BF93EF93FF9380915F
:10127000B900887F803609F44AC0F0F5883209F455
:10128000A7C018F5803109F49BC0B8F4882309F48D
:10129000F9C0883009F494C0FF91EF91BF91AF91EC
:1012A0009F918F917F916F915F914F913F912F917E
:1012B0000F900FBE0F901F901895883109F488C0C9
:1012C000803251F78093270214C0803409F49DC006
:1012D00040F48033B9F38833F9F68093270285EC24
:1012E000B0C0803509F485C0883509F496C08834CB
:1012F00099F60E94EE08D0CF883909F48CC038F5F1
:10130000883729F050F4883611F0803729F683E0C9
:10131000809329021092D80157C0883809F47BC005
:10132000803919F0803809F0B7CF8091D801803228
:1013300008F071C0E091D80181E08E0F8093D80150
:101340008091BB00F0E0E854FE4F80833DC0803BBD
:1013500039F0E0F4803A09F479C0883A09F09CCF7A
:1013600084E0809329021092B7011092B601E091B7
:10137000DF01F091E00109958091B60181110FC064
:1013800081E08093B6011092960109C0803C09F477
:10139000A6CF883C09F4A3CF883B09F07DCFE0912C
:1013A000B70181E08E0F8093B701F0E0EA56FE4F5F
:1013B00080818093BB009091B7018091B60129C0D4
:1013C000809104028093BB0085EC8093BC0064CFC5
:1013D0009091260280912502981758F5E0912602F7
:1013E00081E08E0F80932602F0E0EB5FFD4F80815D
:1013F000E9CFE091260281E08E0F80932602809152
:10140000BB00F0E0EB5FFD4F80839091260280915E
:1014100025029817C8F285E8D8CFE091260281E02E
:101420008E0F809326028091BB00F0E0EB5FFD4FB2
:1014300080838091280281115CCF81E08093030238
:1014400084EA8093BC001092290226CF85EC809319
:10145000BC00109229028091D801803230F4E091D2
:10146000D801F0E0E854FE4F10826091D80170E09E
:10147000E091DD01F091DE0188EB91E00995109299
:10148000D8010ACF1092270234CF1F920F920FB6C5
:101490000F9211242F933F938F939F93AF93BF93FA
:1014A0008091D9019091DA01A091DB01B091DC012A
:1014B0003091900123E0230F2D3758F50196A11D9F
:1014C000B11D209390018093D9019093DA01A093EC
:1014D000DB01B093DC018091910190919201A09188
:1014E0009301B09194010196A11DB11D80939101CA
:1014F00090939201A0939301B0939401BF91AF9107
:101500009F918F913F912F910F900FBE0F901F9041
:10151000189526E8230F0296A11DB11DD2CF1F9268
:101520000F920FB60F9211242F933F934F935F9317
:101530006F937F938F939F93AF93BF93EF93FF939B
:1015400083E592E00E94BB04FF91EF91BF91AF91C0
:101550009F918F917F916F915F914F913F912F91CB
:101560000F900FBE0F901F9018951F920F920FB6FD
:101570000F9211242F938F939F93EF93FF93E091FA
:101580006302F09164028081E0916902F0916A0245
:1015900082FD1BC0908180916C028F5F8F732091C0
:1015A0006D02821741F0E0916C02F0E0ED5AFD4FC0
:1015B000958F80936C02FF91EF919F918F912F9166
:1015C0000F900FBE0F901F9018958081F4CF1F923F
:1015D0000F920FB60F921124CF92DF92EF92FF92EB
:1015E0002F933F934F935F936F937F938F939F932B
:1015F000AF93BF93EF93FF93C0901D03D0901E0352
:10160000E0901F03F090200380911203823009F0D4
:101610004FC0C114D104E104F10409F4D5C0809194
:101620001103882309F45BC0E0912503F0912603A0
:10163000309741F08091270390912803009709F497
:101640004CC009958091150390911603A091170342
:10165000B09118038F3F9105A105B105B9F0B4F021
:10166000F8948091150390911603A0911703B091FF
:1016700018038093190390931A03A0931B03B0934C
:101680001C030E9487001092110378941C141D04FF
:101690001E041F046CF421E0C21AD108E108F1080D
:1016A000C0921D03D0921E03E0921F03F09220030C
:1016B000FF91EF91BF91AF919F918F917F916F912A
:1016C0005F914F913F912F91FF90EF90DF90CF90DE
:1016D0000F900FBE0F901F9018950995B3CFF894F7
:1016E000209112038091190390911A03A0911B037A
:1016F000B0911C03223009F447C08F3F9F4FA105D2
:10170000B10510F40E9487008091190390911A038B
:10171000A0911B03B0911C03AC01BD01009721E017
:10172000A207B10520F04FEF5FEF60E070E0841B8F
:10173000950BA60BB70B8093190390931A03A093F4
:101740001B03B0931C038091190390911A03A0917D
:101750001B03B0911C03892B8A2B8B2B91F5809155
:10176000150390911603A0911703B091180380936D
:10177000190390931A03A0931B03B0931C0381E0F9
:1017800080931103789494CF8F3F9105A105B10503
:1017900010F40E9487008091190390911A03A09180
:1017A0001B03B0911C03AC01BD018F3F9105A10546
:1017B000B10509F008F4BBCF4FEF50E060E070E0F6
:1017C000B6CF10921103DECFF894809112038130CE
:1017D00041F08230B9F6809170008D7F8093700067
:1017E000D1CF80916F008D7F80936F00CBCF0F930F
:1017F0001F93CF93DF9300EF12E0F8011382128260
:1018000088EE93E0A0E0B0E084839583A683B7835D
:101810002AE031E031832083E3E5F2E01382128293
:1018200084839583A683B7838CE191E09183808341
:1018300085EC90E09587848784EC90E09787868795
:1018400080EC90E0918B808B81EC90E0938B828B8D
:1018500082EC90E0958B848B86EC90E0978B868B66
:10186000118E128E138E148EE1E1F3E082E08183FB
:10187000108A118A128A138A158A148A178A168A7C
:10188000108281E090E09383828314821582168215
:10189000178210861186128613868FEF9FEFDC0168
:1018A00084879587A687B787CCEFD2E02EE231E018
:1018B0003F832E838B879C87AD87BE8786E090E031
:1018C0000E948711FC0188E28083128301831382C6
:1018D00080E290E095838483FA87E9871D82DF9117
:1018E000CF911F910F910895CF93DF93CDB7DEB7BE
:1018F00065970FB6F894DEBF0FBECDBF789484B560
:10190000826084BD84B5816084BD85B5826085BDFB
:1019100085B5816085BD80916E00816080936E0089
:10192000109281008091810082608093810080917B
:10193000810081608093810080918000816080932C
:1019400080008091B10084608093B1008091B000EC
:1019500081608093B00080917A00846080937A00E7
:1019600080917A00826080937A0080917A00816011
:1019700080937A0080917A00806880937A00109238
:10198000C100E0916302F091640282E08083E09103
:101990005F02F09160021082E0916102F0916202B8
:1019A0008FEC808310926B02E0916702F0916802E5
:1019B00086E08083E0916502F0916602808180611B
:1019C0008083E0916502F091660280818860808367
:1019D000E0916502F0916602808180688083E091E9
:1019E0006502F091660280818F7D808382E491E0C0
:1019F0000E949B058EE291E098878F838FEF9FEF87
:101A0000DC018C879D87AE87BF8786E090E00E94CF
:101A100087117C0188E2F701808320EF32E0328376
:101A20002183138220E230E035832483FB86EA861B
:101A30001E821A8A1B8A1C8A1D8A8D830E9420029C
:101A400081E0F701838305E510E0DD24D394EA8487
:101A5000FB840E942002F701D382C7010E94E303A6
:101A6000811131C26AE070E080E090E00E940804D9
:101A70000150110961F78FE491E00E949B0533C08A
:101A800062E370E080E090E00E94080440E06EE3D2
:101A900070E0CE0107960E94A9056AE070E080E040
:101AA00090E00E94080440E067E070E0CE010796F5
:101AB0000E94A90540E06FE370E0CE0107960E9406
:101AC000A9056AE070E080E090E00E9408046CE004
:101AD00070E0CE0107960E94D20564E170E080E0DC
:101AE00090E00E9408040889198970E060E0CE0146
:101AF00007960E94D20569E170E080E090E00E94C4
:101B0000080440E067E070E0CE0107960E94A90556
:101B100040E86FE370E0CE0107960E94A9056AE0F5
:101B200070E080E090E00E940804B801CE010796C2
:101B30000E94D20564E170E080E090E00E94080419
:101B40008E8180618E8387E089838AE08A8384E046
:101B50008B8385E08C8387E00E94E6008A810E9467
:101B6000E6008B810E94E6008C810E94E60060E026
:101B700089810E94B60160E08B810E94B60170E00D
:101B800060E08A810E94580270E060E08C810E94CF
:101B900058028E818D7F8E8360E089810E94B6011C
:101BA0008E818E7F8E8360E08B810E94B60160E023
:101BB000CE0101960E94370760E0CE0101960E9497
:101BC0005F0789818093FC028A818093FD028B816B
:101BD0008093FE028C818093FF028D8180930003AD
:101BE0008E819985909304032A853B853093060363
:101BF000209305034C855D856E857F8540930703A3
:101C0000509308036093090370930A032889398964
:101C100030930C0320930B034A895B896C897D897F
:101C200040930D0350930E0360930F0370931003C2
:101C30008B7F88608093010380E691E00E949B0582
:101C400098EE892E93E0992EA12CB12C00E010E0A3
:101C500083E592E00E949B04892B19F183E592E0D1
:101C60000E9479047C01682F70E090E080E04AE0F7
:101C70000E94570588E391E00E944A05FF24F7E699
:101C8000EF16F10409F473C00CF045C0E2E6EE165D
:101C9000F10409F458C06FE7F6E6EF16F10409F411
:101CA00048C02FB7F8946091D9017091DA01809102
:101CB000DB019091DC012FBFA50194010E94950FDB
:101CC000672B682B692BD9F486E791E00E944A05BF
:101CD0008091010384FF5FC00E94FA076B017C01C1
:101CE000AC019B010E948211882309F45AC083E849
:101CF00091E00E944A0588E391E00E944A0501159F
:101D0000110509F4A5CF0E94A704882309F4A0CFE8
:101D10000E9400009DCF82E7E816F10431F1E3E76D
:101D2000EE16F104B9F061E8FCE6EF16F10409F0F3
:101D3000B8CF8CEF92E00E945F076FE78CEF92E0E4
:101D40000E943707AECF61E88CEF92E00E945F07F8
:101D500061E8F4CF60E08CEF92E00E94370760E02A
:101D60008CEF92E00E945F079CCF6FE7EDCF8091F0
:101D7000010384FF0BC00E94FA0760930D03709368
:101D80000E0380930F03909310038BCF60E070E0FD
:101D900080E89FEBF2CFC12CD12C80E8E82E8FEBAE
:101DA000F82E26013701E89477F82FEF3FEF4FE741
:101DB0005FE7C301B2010E94821181110DC02FEFB4
:101DC0003FEF4FE75FE7C301B2010E942A101816E8
:101DD0001CF487E891E08DCF2FEF3FEF4FE75FE4F2
:101DE000C701B6010E94101118161CF48BE891E08F
:101DF00080CF2FEF3FEF4FE75FECC701B6010E94A6
:101E00002A1087FDF3CF20E030E0A901C701B60119
:101E10000E942A1087FF09C06DE283E592E00E94CC
:101E2000DD04F7FAF094F7F8F0942AE037ED43EA8E
:101E30005BE3C701B6010E94BE0F2B013C010E946B
:101E40002F106B017C010E945E109B01AC01C3014D
:101E5000B2010E94BD0F2B013C014AE0C701B6014F
:101E60000E9457056EE283E592E00E94DD0420E0C7
:101E700030E040E251E4C301B2010E9415112B0190
:101E80003C010E942F106B01F12CE12C4AE0C701AC
:101E9000B6010E945705C701B6010E945E109B0162
:101EA000AC01C301B2010E94BD0F20E030E040E26E
:101EB00051E40E9415110E942F1090E080E04AE04A
:101EC0000E94570518CFCE0107960E942107803A3D
:101ED00069F068EE73E080E090E00E940804CE01B3
:101EE00007960E942107803A09F0C5CD70E060E0B6
:101EF000CE0107960E94D20540E26FE370E0CE016A
:101F000007960E94A9056EE170E080E090E00E94D3
:101F10000804CE0107960E942107803A09F4B0CD4B
:101F20006AE070E080E090E0F2CFA1E21A2EAA1BF6
:101F3000BB1BFD010DC0AA1FBB1FEE1FFF1FA21779
:101F4000B307E407F50720F0A21BB30BE40BF50B76
:101F5000661F771F881F991F1A9469F760957095FF
:101F6000809590959B01AC01BD01CF010895EE0FC6
:101F7000FF1F0590F491E02D09945058BB27AA2724
:101F80000E94D50F0C94D6100E94C81038F00E9401
:101F9000CF1020F039F49F3F19F426F40C94C510AB
:101FA0000EF4E095E7FB0C94BF10E92F0E94E710B8
:101FB00058F3BA17620773078407950720F079F47E
:101FC000A6F50C9409110EF4E0950B2EBA2FA02D56
:101FD0000B01B90190010C01CA01A0011124FF27D6
:101FE000591B99F0593F50F4503E68F11A16F040D1
:101FF000A22F232F342F4427585FF3CF46953795D0
:102000002795A795F0405395C9F77EF41F16BA0B94
:10201000620B730B840BBAF09150A1F0FF0FBB1F42
:10202000661F771F881FC2F70EC0BA0F621F731F8B
:10203000841F48F4879577956795B795F7959E3FE8
:1020400008F0B0CF9395880F08F09927EE0F979579
:10205000879508950E949B1008F481E008950E94DE
:10206000EF1088F09F5798F0B92F9927B751B0F02B
:10207000E1F0660F771F881F991F1AF0BA95C9F70C
:1020800014C0B13091F00E940911B1E008950C9490
:102090000911672F782F8827B85F39F0B93FCCF343
:1020A000869577956795B395D9F73EF49095809589
:1020B000709561957F4F8F4F9F4F0895E89409C0A9
:1020C00097FB3EF490958095709561957F4F8F4F6B
:1020D0009F4F9923A9F0F92F96E9BB279395F69581
:1020E000879577956795B795F111F8CFFAF4BB0FFF
:1020F00011F460FF1BC06F5F7F4F8F4F9F4F16C063
:10210000882311F096E911C0772321F09EE8872FEC
:10211000762F05C0662371F096E8862F70E060E0A8
:102120002AF09A95660F771F881FDAF7880F969521
:10213000879597F90895990F0008550FAA0BE0E8C5
:10214000FEEF16161706E807F907C0F01216130679
:10215000E407F50798F0621B730B840B950B39F4B9
:102160000A2661F0232B242B252B21F408950A261F
:1021700009F4A140A6958FEF811D811D089597F95F
:102180009F6780E870E060E008959FEF80EC08951D
:1021900000240A9416161706180609060895002446
:1021A0000A9412161306140605060895092E0394C0
:1021B000000C11F4882352F0BB0F40F4BF2B11F434
:1021C00060FF04C06F5F7F4F8F4F9F4F089557FD93
:1021D0009058440F551F59F05F3F71F04795880F95
:1021E00097FB991F61F09F3F79F08795089512162C
:1021F00013061406551FF2CF4695F1DF08C01616D8
:1022000017061806991FF1CF869571056105089488
:102210000895E894BB2766277727CB0197F908959F
:102220000E949B1008F48FEF08950E9428110C94CF
:10223000D6100E94C81038F00E94CF1020F09523CD
:1022400011F00C94BF100C94C51011240C940A11B9
:102250000E94E71070F3959FC1F3950F50E0551F52
:10226000629FF001729FBB27F00DB11D639FAA27EB
:10227000F00DB11DAA1F649F6627B00DA11D661F3A
:10228000829F2227B00DA11D621F739FB00DA11D5B
:10229000621F839FA00D611D221F749F3327A00D15
:1022A000611D231F849F600D211D822F762F6A2FB1
:1022B00011249F5750409AF0F1F088234AF0EE0F16
:1022C000FF1FBB1F661F771F881F91505040A9F743
:1022D0009E3F510580F00C94BF100C940A115F3F93
:1022E000E4F3983ED4F3869577956795B795F7957F
:1022F000E7959F5FC1F7FE2B880F911D96958795F7
:1023000097F908950E949B10880B990B08950F93DD
:102310001F93CF93DF938230910510F482E090E019
:10232000E0912B03F0912C0330E020E0B0E0A0E03E
:10233000309799F42115310509F44AC0281B390B4F
:1023400024303105D8F58A819B816115710589F1A9
:10235000FB0193838283FE0111C040815181028180
:10236000138148175907E0F04817590799F4109757
:1023700061F012960C93129713961C933296CF012C
:10238000DF91CF911F910F91089500932B0310932C
:102390002C03F4CF2115310551F04217530738F0C3
:1023A000A901DB019A01BD01DF01F801C1CFEF01F5
:1023B000F9CF90932C0380932B03CDCFFE01E20F36
:1023C000F31F819391932250310939832883D7CF0A
:1023D0002091290330912A03232B41F420910201FB
:1023E0003091030130932A032093290320910001A7
:1023F000309101012115310541F42DB73EB74091CF
:10240000040150910501241B350BE0912903F09143
:102410002A03E217F307A0F42E1B3F0B28173907F6
:1024200078F0AC014E5F5F4F2417350748F04E0F30
:102430005F1F50932A0340932903819391939FCF69
:10244000F0E0E0E09CCFCF93DF930097E9F0FC0150
:10245000329713821282A0912B03B0912C03ED01CD
:1024600030E020E01097A1F420813181820F931F8A
:102470002091290330912A032817390709F061C0F8
:10248000F0932A03E0932903DF91CF910895EA01A5
:10249000CE17DF07E8F54A815B819E0141155105A2
:1024A000B1F7E901FB83EA8349915991C40FD51F24
:1024B000EC17FD0761F4808191810296840F951FCE
:1024C000E90199838883828193819B838A83F0E0E9
:1024D000E0E012968D919C9113970097B9F52D919C
:1024E0003C911197CD010296820F931F20912903F1
:1024F00030912A032817390739F6309751F5109291
:102500002C0310922B03B0932A03A0932903BCCF72
:10251000D383C28340815181840F951FC817D90787
:1025200061F44E5F5F4F88819981480F591F518335
:1025300040838A819B81938382832115310509F031
:10254000B0CFF0932C03E0932B039ECFFD01DC0171
:10255000C0CF13821282D7CFFB01DC014150504023
:1025600048F001900D920020C9F701C01D92415022
:0A2570005040E0F70895F894FFCF03
:10257A0000002D0380000000000087015A01670453
:10258A00300153014001310100000000DD043A042A
:10259A006A042A059B0479048D04000000000701DF
:1025AA00A70808013E08A9080D0A00424E4F303517
:1025BA003500436F64652073746172746564004EFC
:1025CA006F206779726F206465746563746564004F
:1025DA0044726976656261736520696E69746961BE
:1025EA006C697A6564004779726F20616E676C6501
:1025FA003A20006E616E00696E66006F76660000B2
:00000001FF
