:100000000C945D000C9485000C9485000C94850084
:100010000C9485000C9485000C9485000C94380A8F
:100020000C9485000C9485000C9485000C9485003C
:100030000C9485000C9485000C9485000C9485002C
:100040000C9477080C9485000C94E7080C94C10874
:100050000C9485000C9485000C9485000C9485000C
:100060000C9419090C94850000000008000201009E
:100070000003040700000000000000000000000072
:10008000250028002B0000000000240027002A0083
:10009000040404040404040402020202020203032E
:1000A0000303030301020408102040800102040836
:1000B0001020010204081020480B11241FBECFEFAE
:1000C000D8E0DEBFCDBF11E0A0E0B1E0E0E0F0E2BB
:1000D00002C005900D92A637B107D9F723E0A6E735
:1000E000B1E001C01D92A431B207E1F710E0CDE507
:1000F000D0E004C02197FE010E94C90DCC35D10784
:10010000C9F70E94090C0C94FE0F0C94000090E0BB
:10011000FC01EC55FF4F249180579F4FFC018491C7
:10012000882399F090E0880F991FFC01EA57FF4F50
:10013000A591B491FC01E458FF4F859194918FB73C
:10014000F894EC91E22BEC938FBF0895809100031B
:1001500090910103A0910203B09103032091F90251
:10016000213091F0223089F18091000390910103B8
:10017000A0910203B0910303892B8A2B8B2B19F4D6
:1001800081E08093F8020895AC01BD01009721E061
:10019000A207B10520F04FEF5FEF60E070E05093F1
:1001A000890040938800841B950BA60BB70B8093A6
:1001B000000390930103A0930203B0930303809183
:1001C0006F00826080936F00CFCFAC01BD018F3F85
:1001D0009105A105B10529F020F04FEF50E060E056
:1001E00070E04093B300841B950BA60BB70B809374
:1001F000000390930103A0930203B0930303809143
:100200007000826080937000AFCF0895089590E0F1
:10021000FC01E859FF4F2491FC01EC55FF4F34914C
:10022000FC01E057FF4FE491EE23C9F0222339F09F
:10023000233001F1A8F4213019F1223029F1F0E046
:10024000EE0FFF1FE458FF4FA591B4918FB7F894BC
:10025000EC91611126C030953E233C938FBF0895E9
:100260002730A9F02830C9F0243049F78091800068
:100270008F7D03C0809180008F7780938000DFCFD7
:1002800084B58F7784BDDBCF84B58F7DFBCF809124
:10029000B0008F778093B000D2CF8091B0008F7D77
:1002A000F9CF3E2BDACF1F93CF93DF93182FEB01BB
:1002B0000E948700209739F460E0812FDF91CF9171
:1002C0001F910C940701E12FF0E0E859FF4FE491F2
:1002D000E33039F148F4E130B9F0E230E9F0C03808
:1002E000D10554F361E0E9CFE73029F1E83059F165
:1002F000E430A9F780918000806280938000D093E1
:100300008B00C0938A0004C084B5806884BDC7BDDB
:10031000DF91CF911F91089584B5806284BDC8BDDF
:10032000F7CF80918000806880938000D09389000F
:10033000C0938800EDCF8091B00080688093B000BA
:10034000C093B300E5CF8091B00080628093B0008D
:10035000C093B400DDCF3FB7F8948091BF01909176
:10036000C001A091C101B091C20126B5A89B05C0F2
:100370002F3F19F00196A11DB11D3FBFBA2FA92F24
:10038000982F8827BC01CD01620F711D811D911D21
:1003900042E0660F771F881F991F4A95D1F708958D
:1003A0008F929F92AF92BF92CF92DF92EF92FF9285
:1003B0004B015C010E94AB016B017C010E94AB010F
:1003C0006C197D098E099F09683E7340810591056E
:1003D000A8F321E0821A9108A108B10888EEC80E9E
:1003E00083E0D81EE11CF11C81149104A104B10426
:1003F00029F7FF90EF90DF90CF90BF90AF909F9044
:100400008F900895AF92BF92CF92DF92EF92FF92BA
:100410000F931F93CF93DF936C017B018B01040F2C
:10042000151FEB015E01AE18BF08C017D10759F0C8
:100430006991D601ED91FC910190F081E02DC6010A
:100440000995892B79F7C501DF91CF911F910F9104
:10045000FF90EF90DF90CF90BF90AF900895FC0198
:10046000538D448D252F30E0842F90E0821B930B19
:10047000541710F0CF96089501970895FC01918DBF
:10048000828D981761F0A28DAE0FBF2FB11D5D96C2
:100490008C91928D9F5F9F73928F90E008958FEF64
:1004A0009FEF0895FC01918D828D981731F0828D18
:1004B000E80FF11D858D90E008958FEF9FEF08956F
:1004C000FC01918D228D892F90E0805C9F4F821BD3
:1004D00091098F739927089589E392E00E94600241
:1004E00021E0892B09F420E0822F089580E090E03C
:1004F000892B29F00E946C0281110C940000089550
:10050000FC01A48DA80FB92FB11DA35ABF4F2C9188
:10051000848D90E001968F739927848FA689B7897F
:100520002C93A089B1898C91837080648C93938D76
:10053000848D981306C00288F389E02D80818F7D19
:1005400080830895EF92FF920F931F93CF93DF93D1
:10055000EC0181E0888F9B8D8C8D98131AC0E889FF
:10056000F989808185FF15C09FB7F894EE89FF89CE
:100570006083E889F98980818370806480839FBF6C
:1005800081E090E0DF91CF911F910F91FF90EF906C
:100590000895F62E0B8D10E00F5F1F4F0F7311277C
:1005A000E02E8C8D8E110CC00FB607FCFACFE889B7
:1005B000F989808185FFF5CFCE010E948002F1CFBD
:1005C000EB8DEC0FFD2FF11DE35AFF4FF0829FB72B
:1005D000F8940B8FEA89FB8980818062CFCFCF931B
:1005E000DF93EC01888D8823B9F0AA89BB89E8895B
:1005F000F9898C9185FD03C0808186FD0DC00FB601
:1006000007FCF7CF8C9185FFF2CF808185FFEDCF7E
:10061000CE010E948002E9CFDF91CF910895089525
:10062000089520919701260F3327331F213231057A
:10063000ECF420910F02FC0190E080E0243069F09E
:1006400082E00895A09197012191AC0149585E4F35
:10065000A40FB52FB11D2C930196861798F38091A6
:100660009701680F6093970180E0089581E00895F5
:1006700010920F0281E080930E021092E90161E076
:1006800082E10E94070161E083E10E940701E9EB3A
:10069000F0E080818E7F808380818D7F808388E4FD
:1006A0008093B80085E48093BC0008951092C8013F
:1006B0001092C70110921602109238020E9438035D
:1006C00085E091E09093C6018093C50186E091E0BA
:1006D0009093C4018093C3010895CF93DF9391E079
:1006E000909376018823B9F0C091B800D091BA00F8
:1006F0008091BC008A7B8093BC0060E082E10E9414
:10070000070160E083E10E9407010E943803D09353
:10071000BA00C093B800DF91CF9108958F929F9255
:10072000AF92BF92CF92DF92EF92FF920F931F93FF
:10073000CF93DF93D0913802D13208F0D7C0182F71
:10074000C09137020E94AB016B017C0180910F02C6
:1007500081116BC082E080930F0210930E028FEF25
:1007600080930D0210920C02D0930B02A7E1B2E02D
:10077000EBEEF1E080E0D81391C01092EA01809195
:10078000EA01CC0FC82BC093EA018091E9018130C6
:1007900009F088C01092E9010E94AB016B017C0155
:1007A0008091EA018093BB00809111029091120226
:1007B000A0911302B0911402892B8A2B8B2BA1F0EC
:1007C0000E94AB01009111021091120220911302BC
:1007D000309114026C197D098E099F0906171707BD
:1007E0002807390708F442C08091BC0083FDD8CFA8
:1007F00085EC8093BC000E94AB016B017C01809171
:100800000F02823009F450C080910D028F3F09F42D
:100810006FC080910D02803209F46CC080910D028E
:10082000803309F469C084E026C080911102909160
:100830001202A0911302B0911402892B8A2B8B2BE8
:1008400009F484CF0E94AB018090110290901202B3
:10085000A0901302B09014026C197D098E099F09B3
:1008600086169706A806B90608F070CF8091100288
:100870000E946D0385E010921602109238021092C9
:100880001502DF91CF911F910F91FF90EF90DF90B4
:10089000CF90BF90AF909F908F9008959D9191932E
:1008A0008F5F69CF85EEA5CF8091110290911202E2
:1008B000A0911302B0911402892B8A2B8B2B09F47F
:1008C0009ECF0E94AB010091110210911202209163
:1008D0001302309114026C197D098E099F090617C5
:1008E00017072807390708F08ACFC0CF81E0C3CFA8
:1008F00080E0C1CF82E0BFCF83E0BDCF1F93CF9315
:10090000DF93EA01122FDC0111968D919C91DC019D
:10091000ED91FC910280F381E02D0995C817D9076C
:1009200029F4812F0E948E0391E0811190E0892F9C
:10093000DF91CF911F910895CF93DF93EC018B81CD
:100940008823A1F0888191E090931502809337026B
:10095000109216021092380281E00E948E0391E0FC
:10096000811190E0892FDF91CF9108950E94560365
:1009700081E08B83CE010E949C04982F8111E2CFED
:10098000F1CF0895E091C8018091C701E81730F4D4
:10099000F0E0E753FE4F808190E008958FEF9FEFE6
:1009A00008959091C8018091C7012FEF3FEF9817EC
:1009B00048F4E92FF0E0E753FE4F208130E09F5FDD
:1009C0009093C801C90108958091C7019091C80111
:1009D000891B990B0895CF92DF92EF92FF920F93AC
:1009E0001F93CF93DF937C01CB018A0120911502E5
:1009F000222389F0EB016B01C40ED51ECC15DD0559
:100A000069F06991D701ED91FC910190F081E02DA1
:100A1000C7010995F3CF642F0E941103C801DF912C
:100A2000CF911F910F91FF90EF90DF90CF9008959D
:100A3000CF93DF931F92CDB7DEB769832091150264
:100A40002223F9F020913802203258F021E030E0E2
:100A5000FC013383228390E080E00F90DF91CF91FF
:100A6000089580911602E82FF0E0E95EFD4F99812C
:100A700090838F5F809316028093380281E090E02C
:100A8000ECCF61E0CE0101960E941103F7CF90E018
:100A900080E00895CF93C82F9091F102292F2870FC
:100AA0008091ED02C7FD07C0222339F09260909338
:100AB000F10261E006C02223C9F39D7F9093F10209
:100AC00060E00E9407016C2FCC0F770B77FF03C00B
:100AD000719561957109660F771F8091EE02CF9134
:100AE0000C945301CF93C82F9091F102292F2470B9
:100AF0008091EF02C7FD07C0222339F091609093E7
:100B0000F10261E006C02223C9F39E7F9093F102B7
:100B100060E00E9407016C2FCC0F770B77FF03C0BA
:100B2000719561957109660F771F8091F002CF91E1
:100B30000C945301CF93DF9300D0CDB7DEB78983F8
:100B40006A838091E5029091E602FC01248135815F
:100B500022303105B8F0208131E030931502209326
:100B60003702109216021092380221E042E050E063
:100B7000BE016F5F7F4F0E947E040F900F90DF9148
:100B8000CF91089580E0F9CFE2EEF2E0818792877D
:100B9000682F8DE390E00E949A056EE170E080E09E
:100BA00090E00C94D0012F923F924F925F926F92FF
:100BB0007F928F929F92AF92BF92CF92DF92EF92ED
:100BC000FF920F931F93CF93DF93DC011496ED9167
:100BD000FC911597EF2B09F412C169012A01EC0170
:100BE000888191E09093150280933702109216024B
:100BF0001092380220E041E050E0CD010E947E04D6
:100C0000782E882309F4FBC0F12CE12C3324339493
:100C1000EC14FD0408F0F4C08C819D8186010E194E
:100C20001F098017910708F48C0128800E94AB01EE
:100C30004B015C0180910F02811173C0602EB0E204
:100C4000B01710F480E2682E30920F0221E0C60146
:100C5000801B910BE816F90608F420E020930E02A1
:100C6000EFEFE0930D0210920C028FEF860D809350
:100C70000B023092EA018091EA01220C282A20928C
:100C8000EA018091E901813009F090C01092E901F8
:100C90000E94AB014B015C018091EA018093BB0093
:100CA0008091110290911202A0911302B09114024E
:100CB000892B8A2B8B2BA1F00E94AB012091110272
:100CC000309112024091130250911402681979096F
:100CD0008A099B09261737074807590708F442C0B5
:100CE0008091BC0083FDD8CFF5ECF093BC000E944E
:100CF000AB014B015C0180910F02813009F45AC0B5
:100D000080910C02861510F460900C02ABEEB1E0FD
:100D1000E9ECF1E080E0861551F19D9191938F5FB0
:100D2000FACF8091110290911202A0911302B0911A
:100D30001402892B8A2B8B2B09F47CCF0E94AB01E8
:100D4000209111023091120240911302509114022D
:100D5000681979098A099B0926173707480759072F
:100D600008F068CF809110020E946D03612C1092F0
:100D7000C8016092C7016016110609F040C0420127
:100D80008E0C9F1C5401C501881999098017910781
:100D900098F589819A81DC01ED91FC910284F385BB
:100DA000E02D0995F50181935F01EDCF85EE8093EC
:100DB000BC009DCF8091110290911202A09113026C
:100DC000B0911402892B8A2B8B2B09F494CF0E94AB
:100DD000AB01209111023091120240911302509107
:100DE0001402681979098A099B09261737074807E9
:100DF000590708F080CFB6CFE00EF11E09CF712C55
:100E0000872DDF91CF911F910F91FF90EF90DF9091
:100E1000CF90BF90AF909F908F907F906F905F909A
:100E20004F903F902F900895CF93DF931F92CDB7AF
:100E3000DEB7198221E030E0AE014F5F5F4FBA01AB
:100E40008091E5029091E6020E94D30589810F907E
:100E5000DF91CF910895FC0101900020E9F73197CF
:100E6000AF01481B590BBC0189E392E00C940202CC
:100E7000CF93DF930E942B07EC0188E391E00E945F
:100E80002B078C0F9D1FDF91CF9108950C94660F57
:100E90008F929F92AF92BF92CF92DF92EF92FF928A
:100EA0000F931F93CF93DF93CDB7DEB763970FB642
:100EB000F894DEBF0FBECDBF8B01FB01349620E25C
:100EC000DF011D922A95E9F744E250E060E070E00E
:100ED000F8014083518362837383DC0115964D9141
:100EE0005D916D917C9118974483558366837783D8
:100EF00043E050E060E070E040875187628773878D
:100F00002FB7F8944091BB015091BC016091BD0195
:100F10007091BE012FBF408B518B628B738B2CE085
:100F2000FE013196DF011D922A95E9F7AE01435F7C
:100F30005F4F26E0FA0111922A95E9F72AE12B8BFF
:100F400026E030E0BE016D5E7F4FDC0113968D918F
:100F50009C910E94D3056D857E85072E000C880B21
:100F6000990B0E94D10D20E030E040E85DE30E9443
:100F70000C0E4B015C016F857889072E000C880BE5
:100F8000990B0E94D10D20E030E040E85DE30E9423
:100F90000C0E6B017C0169897A89072E000C880B85
:100FA000990B0E94D10D20E030E040E85DE30E9403
:100FB0000C0EF801848A958AA68AB78AC08ED18ED3
:100FC000E28EF38E648F758F868F978F81E06396A4
:100FD0000FB6F894DEBF0FBECDBFDF91CF911F914A
:100FE0000F91FF90EF90DF90CF90BF90AF909F90C8
:100FF0008F9008950F931F93CF93DF938C01EB0194
:1010000088E2FB0111928A95E9F74BE050E06BE32F
:1010100071E0CE010E94EF0F1B8681E090E0A0E01E
:10102000B0E08C879D87AE87BF87F8018581968168
:10103000A781B085888B998BAA8BBB8B83E090E0CE
:10104000A0E0B0E08C8B9D8BAE8BBF8B1CA21DA251
:101050001EA21FA2188E198E1A8E1B8E1C8E1D8E1C
:101060001E8E1F8E8AE097EDA3E2BCE388A399A3AE
:10107000AAA3BBA3DF91CF911F910F91089585ED96
:101080008093BC008091110290911202A0911302F2
:10109000B09114020796A11DB11D23E0B695A79546
:1010A000979587952A95D1F72091BC0024FD03C020
:1010B00010920F0208954091110250911202609116
:1010C000130270911402452B462B472B69F30097AE
:1010D000A105B10541F025E32A95F1F7000001973C
:1010E000A109B109E1CF809110020C946D031F9208
:1010F0000F920FB60F9211242F933F938F939F93CC
:10110000AF93BF938091BB019091BC01A091BD01B1
:10111000B091BE013091BA0123E0230F2D3758F56D
:101120000196A11DB11D2093BA018093BB0190933C
:10113000BC01A093BD01B093BE018091BF0190910D
:10114000C001A091C101B091C2010196A11DB11DC4
:101150008093BF019093C001A093C101B093C201DD
:10116000BF91AF919F918F913F912F910F900FBEA3
:101170000F901F90189526E8230F0296A11DB11D10
:10118000D2CF1F920F920FB60F9211242F933F933D
:101190004F935F936F937F938F939F93AF93BF937F
:1011A000EF93FF9389E392E00E948002FF91EF9119
:1011B000BF91AF919F918F917F916F915F914F916F
:1011C0003F912F910F900FBE0F901F9018951F9277
:1011D0000F920FB60F9211242F938F939F93EF933B
:1011E000FF93E0914902F0914A028081E0914F0221
:1011F000F091500282FD1BC09081809152028F5F5E
:101200008F7320915302821741F0E0915202F0E077
:10121000E75CFD4F958F80935202FF91EF919F9174
:101220008F912F910F900FBE0F901F901895808176
:10123000F4CF1F920F920FB60F9211242F933F936A
:101240004F935F936F937F938F939F93AF93BF93CE
:10125000EF93FF938091B900887F803609F44AC0EC
:10126000F0F5883209F4A7C018F5803109F49BC065
:10127000B8F4882309F4F9C0883009F494C0FF91C8
:10128000EF91BF91AF919F918F917F916F915F91FE
:101290004F913F912F910F900FBE0F901F90189577
:1012A000883109F488C0803251F780930D0214C050
:1012B000803409F49DC040F48033B9F38833F9F6E3
:1012C00080930D0285ECB0C0803509F485C0883567
:1012D00009F496C0883499F60E943F08D0CF883927
:1012E00009F48CC038F5883729F050F4883611F0AD
:1012F000803729F683E080930F021092B90157C01E
:10130000883809F47BC0803919F0803809F0B7CFEC
:101310008091B901803208F071C0E091B90181E09B
:101320008E0F8093B9018091BB00F0E0E756FE4F2D
:1013300080833DC0803B39F0E0F4803A09F479C005
:10134000883A09F09CCF84E080930F0210929801B4
:1013500010929701E091C501F091C6010995809125
:10136000970181110FC081E080939701109277015E
:1013700009C0803C09F4A6CF883C09F4A3CF883B80
:1013800009F07DCFE091980181E08E0F8093980164
:10139000F0E0E958FE4F80818093BB009091980166
:1013A0008091970129C08091EA018093BB0085EC70
:1013B0008093BC0064CF90910C0280910B0298172F
:1013C00058F5E0910C0281E08E0F80930C02F0E062
:1013D000E551FE4F8081E9CFE0910C0281E08E0F54
:1013E00080930C028091BB00F0E0E551FE4F8083BA
:1013F00090910C0280910B029817C8F285E8D8CF23
:10140000E0910C0281E08E0F80930C028091BB0072
:10141000F0E0E551FE4F808380910E0281115CCF98
:1014200081E08093E90184EA8093BC0010920F026E
:1014300026CF85EC8093BC0010920F028091B901F9
:10144000803230F4E091B901F0E0E756FE4F1082AF
:101450006091B90170E0E091C301F091C40189E9A4
:1014600091E009951092B9010ACF10920D0234CF84
:101470001F920F920FB60F921124CF92DF92EF922C
:10148000FF922F933F934F935F936F937F938F932D
:101490009F93AF93BF93EF93FF93C0900403D090BB
:1014A0000503E0900603F09007038091F902823073
:1014B00009F04FC0C114D104E104F10409F4D5C00E
:1014C0008091F802882309F45BC0E0910C03F0914D
:1014D0000D03309741F080910E0390910F03009718
:1014E00009F44CC009958091FC029091FD02A091F5
:1014F000FE02B091FF028F3F9105A105B105B9F041
:10150000B4F0F8948091FC029091FD02A091FE024B
:10151000B091FF028093000390930103A093020314
:10152000B09303030E94A6001092F80278941C1452
:101530001D041E041F046CF421E0C21AD108E10846
:10154000F108C0920403D0920503E0920603F092E2
:101550000703FF91EF91BF91AF919F918F917F9181
:101560006F915F914F913F912F91FF90EF90DF909E
:10157000CF900F900FBE0F901F9018950995B3CF85
:10158000F8942091F9028091000390910103A091B9
:101590000203B0910303223009F447C08F3F9F4FED
:1015A000A105B10510F40E94A6008091000390915E
:1015B0000103A0910203B0910303AC01BD010097A8
:1015C00021E0A207B10520F04FEF5FEF60E070E08F
:1015D000841B950BA60BB70B80930003909301031C
:1015E000A0930203B0930303809100039091010341
:1015F000A0910203B0910303892B8A2B8B2B91F5C9
:101600008091FC029091FD02A091FE02B091FF0238
:101610008093000390930103A0930203B09303030C
:1016200081E08093F802789494CF8F3F9105A105D3
:10163000B10510F40E94A60080910003909101036F
:10164000A0910203B0910303AC01BD018F3F91054E
:10165000A105B10509F008F4BBCF4FEF50E060E001
:1016600070E0B6CF1092F802DECFF8948091F902C4
:10167000813041F08230B9F6809170008D7F809387
:101680007000D1CF80916F008D7F80936F00CBCFA2
:101690000F931F93CF93DF93E9E3F2E0138212825B
:1016A00088EE93E0A0E0B0E084839583A683B783BF
:1016B0002AE031E03183208325EC30E03587248730
:1016C00024EC30E03787268720EC30E0318B208B0C
:1016D00021EC30E0338B228B22EC30E0358B248BF5
:1016E00026EC30E0378B268B118E128E138E148EE3
:1016F00006ED12E0F8011382128284839583A6839B
:10170000B7838CE191E091838083E8EFF2E082E09F
:101710008183108A118A128A138A158A148A178A79
:10172000168A108281E090E093838283148215826E
:101730001682178210861186128613868FEF9FEF0E
:10174000DC0184879587A687B787CDEED2E01F821C
:10175000188619861A861C8287E088838AE0898326
:1017600084E08A8385E08B8387E00E9487008981FB
:101770000E9487008A810E9487008B810E948700D7
:1017800060E088810E94070160E08A810E94070171
:1017900070E060E089810E94530170E060E08B811D
:1017A0000E9453018C818D7F8C8360E088810E9430
:1017B00007018C818E7F8C8360E08A810E94070103
:1017C00080E00E94720580E00E944A05C2EED2E0ED
:1017D0008EE291E09983888388E290E0A0E0B0E017
:1017E0008D839E83AF83B88786E090E00E94CA0E07
:1017F000FC0188E2808312830183138280E290E0FF
:1018000095838483FC83EB83DF91CF911F910F91AC
:101810000895CF93DF93CDB7DEB7A1970FB6F894B5
:10182000DEBF0FBECDBF789484B5826084BD84B521
:10183000816084BD85B5826085BD85B5816085BDCB
:1018400080916E00816080936E0010928100809183
:10185000810082608093810080918100816080930B
:101860008100809180008160809380008091B10030
:1018700084608093B1008091B00081608093B0005B
:1018800080917A00846080937A0080917A008260EF
:1018900080937A0080917A00816080937A008091B1
:1018A0007A00806880937A001092C100E09149022A
:1018B000F0914A0282E08083E0914502F091460275
:1018C0001082E0914702F09148028FEC80831092E1
:1018D0005102E0914D02F0914E0286E08083E0914A
:1018E0004B02F0914C02808180618083E0914B0239
:1018F000F0914C02808188608083E0914B02F091EE
:101900004C02808180688083E0914B02F0914C0210
:1019100080818F7D808382E491E00E94380700916E
:10192000E5021091E6020E94560381E0F8018383EC
:1019300005E510E0DD24D394E090E502F090E602A6
:101940000E945603F701D382C7010E949C048111B3
:10195000D6C06AE070E080E090E00E94D0010150C3
:10196000110951F785E691E00E943807FFCF62E345
:1019700070E080E090E00E94D00160E08EE390E0B3
:101980000E949A056AE070E080E090E00E94D00139
:1019900060E087E090E00E949A0560E08FE390E0CD
:1019A0000E949A056AE070E080E090E00E94D00119
:1019B0008CE090E00E94C40564E170E080E090E07B
:1019C0000E94D0010091EB021091EC0290E080E0C7
:1019D0000E94C40569E170E080E090E00E94D001BF
:1019E00060E087E090E00E949A0560E88FE390E075
:1019F0000E949A056AE070E080E090E00E94D001C9
:101A0000C8010E94C40564E170E080E090E00E949B
:101A1000D00182EE92E09093F3028093F2028091E3
:101A2000F1028B7F88618093F1028FE491E00E9444
:101A300038078AE0882E912CA12CB12C90E0C92E79
:101A400090E0D92E89E392E00E946002892B91F107
:101A500089E392E00E943E028C01282F30E050E0A2
:101A600040E019A27E01F1E2EF0EF11CCA01B901BA
:101A7000A50194010E94A70D605DF70162937F01AB
:101A8000211531054105510589F7309719F0CF012E
:101A90000E942B0788E391E00E942B0711270C3648
:101AA0001105F9F08CF40236110511F180E40636C7
:101AB0001105C1F0C114D10429F20E946C028823DF
:101AC00009F20E940000BECF02371105B1F00337C2
:101AD000110581F780E00E94720580E00E944A05AE
:101AE000E9CF80EC0E944A0580E40E947205E2CFB3
:101AF00080EC0E944A0580ECF8CF80E4FACF0E9487
:101B00001407803A59F068EE73E080E090E00E949C
:101B1000D0010E941407803A09F024CF90E080E0C1
:101B20000E94C40560E28FE390E00E949A056EE196
:101B300070E080E090E00E94D0010E941407803A9B
:101B400009F415CF6AE070E080E090E0F4CFA1E204
:101B50001A2EAA1BBB1BFD010DC0AA1FBB1FEE1F27
:101B6000FF1FA217B307E407F50720F0A21BB30B72
:101B7000E40BF50B661F771F881F991F1A9469F7EE
:101B800060957095809590959B01AC01BD01CF014A
:101B90000895EE0FFF1F0590F491E02D0994E8944D
:101BA00009C097FB3EF490958095709561957F4FA5
:101BB0008F4F9F4F9923A9F0F92F96E9BB27939553
:101BC000F695879577956795B795F111F8CFFAF463
:101BD000BB0F11F460FF1BC06F5F7F4F8F4F9F4F94
:101BE00016C0882311F096E911C0772321F09EE8F2
:101BF000872F762F05C0662371F096E8862F70E058
:101C000060E02AF09A95660F771F881FDAF7880F31
:101C10009695879597F908950E941F0E0C94900E43
:101C20000E94820E38F00E94890E20F0952311F058
:101C30000C94790E0C947F0E11240C94C40E0E9407
:101C4000A10E70F3959FC1F3950F50E0551F629F51
:101C5000F001729FBB27F00DB11D639FAA27F00D05
:101C6000B11DAA1F649F6627B00DA11D661F829F2C
:101C70002227B00DA11D621F739FB00DA11D621F11
:101C8000839FA00D611D221F749F3327A00D611D2E
:101C9000231F849F600D211D822F762F6A2F112410
:101CA0009F5750409AF0F1F088234AF0EE0FFF1F43
:101CB000BB1F661F771F881F91505040A9F79E3F9A
:101CC000510580F00C94790E0C94C40E5F3FE4F340
:101CD000983ED4F3869577956795B795F795E795F0
:101CE0009F5FC1F7FE2B880F911D9695879597F9F9
:101CF000089597F99F6780E870E060E008959FEF8E
:101D000080EC089500240A94161617061806090692
:101D1000089500240A941216130614060506089561
:101D2000092E0394000C11F4882352F0BB0F40F4E9
:101D3000BF2B11F460FF04C06F5F7F4F8F4F9F4F29
:101D4000089557FD9058440F551F59F05F3F71F0AB
:101D50004795880F97FB991F61F09F3F79F0879512
:101D60000895121613061406551FF2CF4695F1DF9B
:101D700008C0161617061806991FF1CF869571052B
:101D8000610508940895E894BB2766277727CB015F
:101D900097F908950F931F93CF93DF9382309105A6
:101DA00010F482E090E0E0911203F091130330E030
:101DB00020E0B0E0A0E0309799F42115310509F456
:101DC0004AC0281B390B24303105D8F58A819B8104
:101DD0006115710589F1FB0193838283FE0111C0B6
:101DE000408151810281138148175907E0F048175B
:101DF000590799F4109761F012960C931297139665
:101E00001C933296CF01DF91CF911F910F910895CE
:101E10000093120310931303F4CF2115310551F0F1
:101E20004217530738F0A901DB019A01BD01DF0118
:101E3000F801C1CFEF01F9CF909313038093120300
:101E4000CDCFFE01E20FF31F819391932250310910
:101E500039832883D7CF2091100330911103232B8E
:101E600041F420910201309103013093110320933A
:101E7000100320910001309101012115310541F439
:101E80002DB73EB74091040150910501241B350B3D
:101E9000E0911003F0911103E217F307A0F42E1B59
:101EA0003F0B2817390778F0AC014E5F5F4F2417BE
:101EB000350748F04E0F5F1F5093110340931003F6
:101EC000819391939FCFF0E0E0E09CCFCF93DF939D
:101ED0000097E9F0FC01329713821282A09112035D
:101EE000B0911303ED0130E020E01097A1F42081C0
:101EF0003181820F931F2091100330911103281715
:101F0000390709F061C0F0931103E0931003DF91EA
:101F1000CF910895EA01CE17DF07E8F54A815B818A
:101F20009E0141155105B1F7E901FB83EA8349910F
:101F30005991C40FD51FEC17FD0761F48081918181
:101F40000296840F951FE90199838883828193818A
:101F50009B838A83F0E0E0E012968D919C91139729
:101F60000097B9F52D913C911197CD010296820F02
:101F7000931F20911003309111032817390739F668
:101F8000309751F51092130310921203B09311037E
:101F9000A0931003BCCFD383C28340815181840FAF
:101FA000951FC817D90761F44E5F5F4F88819981EB
:101FB000480F591F518340838A819B819383828379
:101FC0002115310509F0B0CFF0931303E09312030C
:101FD0009ECFFD01DC01C0CF13821282D7CFFB015F
:101FE000DC014150504048F001900D920020C9F7AB
:101FF00001C01D9241505040E0F70895F894FFCF82
:1020000000001403800000000000A20202022F0260
:10201000EF0260023E025202000000001805EB04CD
:102020004705C104E404D104C204000000000F030A
:10203000460710034807FA070D0A00424E4F303595
:102040003500436F64652073746172746564004485
:10205000726976656261736520696E697469616C25
:10206000697A6564004E6F206779726F20646574C9
:0620700065637465640065
:00000001FF
